{
  "_format": "hh-sol-artifact-1",
  "contractName": "BondingCurveV1",
  "sourceName": "contracts/BondingCurveV1.sol",
  "abi": [
    {
      "inputs": [
        {
          "internalType": "address",
          "name": "_okbToken",
          "type": "address"
        },
        {
          "internalType": "address",
          "name": "_feeRecipient",
          "type": "address"
        }
      ],
      "stateMutability": "nonpayable",
      "type": "constructor"
    },
    {
      "inputs": [],
      "name": "EnforcedPause",
      "type": "error"
    },
    {
      "inputs": [],
      "name": "ExpectedPause",
      "type": "error"
    },
    {
      "inputs": [
        {
          "internalType": "address",
          "name": "owner",
          "type": "address"
        }
      ],
      "name": "OwnableInvalidOwner",
      "type": "error"
    },
    {
      "inputs": [
        {
          "internalType": "address",
          "name": "account",
          "type": "address"
        }
      ],
      "name": "OwnableUnauthorizedAccount",
      "type": "error"
    },
    {
      "inputs": [],
      "name": "ReentrancyGuardReentrantCall",
      "type": "error"
    },
    {
      "inputs": [
        {
          "internalType": "address",
          "name": "token",
          "type": "address"
        }
      ],
      "name": "SafeERC20FailedOperation",
      "type": "error"
    },
    {
      "anonymous": false,
      "inputs": [],
      "name": "ConfigUpdated",
      "type": "event"
    },
    {
      "anonymous": false,
      "inputs": [
        {
          "indexed": true,
          "internalType": "address",
          "name": "token",
          "type": "address"
        },
        {
          "indexed": false,
          "internalType": "string",
          "name": "step",
          "type": "string"
        },
        {
          "indexed": false,
          "internalType": "uint256",
          "name": "okbAmount",
          "type": "uint256"
        },
        {
          "indexed": false,
          "internalType": "uint256",
          "name": "tokenAmount",
          "type": "uint256"
        },
        {
          "indexed": false,
          "internalType": "address",
          "name": "pool",
          "type": "address"
        }
      ],
      "name": "GraduationStep",
      "type": "event"
    },
    {
      "anonymous": false,
      "inputs": [
        {
          "indexed": true,
          "internalType": "address",
          "name": "initializer",
          "type": "address"
        },
        {
          "indexed": false,
          "internalType": "bool",
          "name": "allowed",
          "type": "bool"
        }
      ],
      "name": "InitializerSet",
      "type": "event"
    },
    {
      "anonymous": false,
      "inputs": [
        {
          "indexed": true,
          "internalType": "address",
          "name": "previousOwner",
          "type": "address"
        },
        {
          "indexed": true,
          "internalType": "address",
          "name": "newOwner",
          "type": "address"
        }
      ],
      "name": "OwnershipTransferred",
      "type": "event"
    },
    {
      "anonymous": false,
      "inputs": [
        {
          "indexed": false,
          "internalType": "address",
          "name": "account",
          "type": "address"
        }
      ],
      "name": "Paused",
      "type": "event"
    },
    {
      "anonymous": false,
      "inputs": [
        {
          "indexed": true,
          "internalType": "address",
          "name": "token",
          "type": "address"
        },
        {
          "indexed": false,
          "internalType": "address",
          "name": "pool",
          "type": "address"
        },
        {
          "indexed": false,
          "internalType": "uint256",
          "name": "okbSeeded",
          "type": "uint256"
        },
        {
          "indexed": false,
          "internalType": "uint256",
          "name": "tokenSeeded",
          "type": "uint256"
        },
        {
          "indexed": false,
          "internalType": "uint256",
          "name": "migrationFee",
          "type": "uint256"
        }
      ],
      "name": "TokenGraduated",
      "type": "event"
    },
    {
      "anonymous": false,
      "inputs": [
        {
          "indexed": true,
          "internalType": "address",
          "name": "token",
          "type": "address"
        },
        {
          "indexed": false,
          "internalType": "uint256",
          "name": "okbReserve",
          "type": "uint256"
        },
        {
          "indexed": false,
          "internalType": "uint256",
          "name": "tokenReserve",
          "type": "uint256"
        }
      ],
      "name": "TokenInitialized",
      "type": "event"
    },
    {
      "anonymous": false,
      "inputs": [
        {
          "indexed": true,
          "internalType": "address",
          "name": "token",
          "type": "address"
        },
        {
          "indexed": true,
          "internalType": "address",
          "name": "buyer",
          "type": "address"
        },
        {
          "indexed": false,
          "internalType": "uint256",
          "name": "okbIn",
          "type": "uint256"
        },
        {
          "indexed": false,
          "internalType": "uint256",
          "name": "tokensOut",
          "type": "uint256"
        },
        {
          "indexed": false,
          "internalType": "uint256",
          "name": "fee",
          "type": "uint256"
        }
      ],
      "name": "TokensPurchased",
      "type": "event"
    },
    {
      "anonymous": false,
      "inputs": [
        {
          "indexed": true,
          "internalType": "address",
          "name": "token",
          "type": "address"
        },
        {
          "indexed": true,
          "internalType": "address",
          "name": "seller",
          "type": "address"
        },
        {
          "indexed": false,
          "internalType": "uint256",
          "name": "tokensIn",
          "type": "uint256"
        },
        {
          "indexed": false,
          "internalType": "uint256",
          "name": "okbOut",
          "type": "uint256"
        },
        {
          "indexed": false,
          "internalType": "uint256",
          "name": "fee",
          "type": "uint256"
        }
      ],
      "name": "TokensSold",
      "type": "event"
    },
    {
      "anonymous": false,
      "inputs": [
        {
          "indexed": false,
          "internalType": "address",
          "name": "account",
          "type": "address"
        }
      ],
      "name": "Unpaused",
      "type": "event"
    },
    {
      "inputs": [],
      "name": "CURVE_SUPPLY",
      "outputs": [
        {
          "internalType": "uint256",
          "name": "",
          "type": "uint256"
        }
      ],
      "stateMutability": "view",
      "type": "function"
    },
    {
      "inputs": [],
      "name": "FEE_DENOMINATOR",
      "outputs": [
        {
          "internalType": "uint256",
          "name": "",
          "type": "uint256"
        }
      ],
      "stateMutability": "view",
      "type": "function"
    },
    {
      "inputs": [],
      "name": "LP_SUPPLY",
      "outputs": [
        {
          "internalType": "uint256",
          "name": "",
          "type": "uint256"
        }
      ],
      "stateMutability": "view",
      "type": "function"
    },
    {
      "inputs": [],
      "name": "MIGRATION_FEE",
      "outputs": [
        {
          "internalType": "uint256",
          "name": "",
          "type": "uint256"
        }
      ],
      "stateMutability": "view",
      "type": "function"
    },
    {
      "inputs": [],
      "name": "REMAINING_SUPPLY",
      "outputs": [
        {
          "internalType": "uint256",
          "name": "",
          "type": "uint256"
        }
      ],
      "stateMutability": "view",
      "type": "function"
    },
    {
      "inputs": [],
      "name": "TOTAL_SUPPLY",
      "outputs": [
        {
          "internalType": "uint256",
          "name": "",
          "type": "uint256"
        }
      ],
      "stateMutability": "view",
      "type": "function"
    },
    {
      "inputs": [
        {
          "internalType": "address",
          "name": "token",
          "type": "address"
        },
        {
          "internalType": "uint256",
          "name": "okbIn",
          "type": "uint256"
        },
        {
          "internalType": "uint256",
          "name": "minTokensOut",
          "type": "uint256"
        }
      ],
      "name": "buyTokens",
      "outputs": [],
      "stateMutability": "nonpayable",
      "type": "function"
    },
    {
      "inputs": [
        {
          "internalType": "address",
          "name": "token",
          "type": "address"
        },
        {
          "internalType": "uint256",
          "name": "okbIn",
          "type": "uint256"
        },
        {
          "internalType": "uint256",
          "name": "minTokensOut",
          "type": "uint256"
        },
        {
          "internalType": "address",
          "name": "recipient",
          "type": "address"
        }
      ],
      "name": "buyTokensFor",
      "outputs": [],
      "stateMutability": "nonpayable",
      "type": "function"
    },
    {
      "inputs": [],
      "name": "config",
      "outputs": [
        {
          "internalType": "uint256",
          "name": "graduationThreshold",
          "type": "uint256"
        },
        {
          "internalType": "uint256",
          "name": "minimumPurchase",
          "type": "uint256"
        },
        {
          "internalType": "uint16",
          "name": "buyFeeBps",
          "type": "uint16"
        },
        {
          "internalType": "uint16",
          "name": "sellFeeBps",
          "type": "uint16"
        },
        {
          "internalType": "uint16",
          "name": "dexSeedOkbBps",
          "type": "uint16"
        },
        {
          "internalType": "uint16",
          "name": "dexSeedTokenBps",
          "type": "uint16"
        },
        {
          "internalType": "address",
          "name": "feeRecipient",
          "type": "address"
        },
        {
          "internalType": "address",
          "name": "graduationFeeRecipient",
          "type": "address"
        },
        {
          "internalType": "address",
          "name": "routeContract",
          "type": "address"
        },
        {
          "internalType": "uint256",
          "name": "virtualOkbReserve",
          "type": "uint256"
        },
        {
          "internalType": "uint256",
          "name": "virtualTokenReserve",
          "type": "uint256"
        }
      ],
      "stateMutability": "view",
      "type": "function"
    },
    {
      "inputs": [
        {
          "internalType": "address",
          "name": "token",
          "type": "address"
        }
      ],
      "name": "getCurrentPrice",
      "outputs": [
        {
          "internalType": "uint256",
          "name": "",
          "type": "uint256"
        }
      ],
      "stateMutability": "view",
      "type": "function"
    },
    {
      "inputs": [
        {
          "internalType": "address",
          "name": "token",
          "type": "address"
        },
        {
          "internalType": "uint256",
          "name": "okbIn",
          "type": "uint256"
        }
      ],
      "name": "getQuoteBuy",
      "outputs": [
        {
          "internalType": "uint256",
          "name": "tokensOut",
          "type": "uint256"
        },
        {
          "internalType": "uint256",
          "name": "priceAfter",
          "type": "uint256"
        },
        {
          "internalType": "uint256",
          "name": "fee",
          "type": "uint256"
        }
      ],
      "stateMutability": "view",
      "type": "function"
    },
    {
      "inputs": [
        {
          "internalType": "address",
          "name": "token",
          "type": "address"
        },
        {
          "internalType": "uint256",
          "name": "tokensIn",
          "type": "uint256"
        }
      ],
      "name": "getQuoteSell",
      "outputs": [
        {
          "internalType": "uint256",
          "name": "okbOut",
          "type": "uint256"
        },
        {
          "internalType": "uint256",
          "name": "priceAfter",
          "type": "uint256"
        },
        {
          "internalType": "uint256",
          "name": "fee",
          "type": "uint256"
        }
      ],
      "stateMutability": "view",
      "type": "function"
    },
    {
      "inputs": [],
      "name": "getTokenList",
      "outputs": [
        {
          "internalType": "address[]",
          "name": "",
          "type": "address[]"
        }
      ],
      "stateMutability": "view",
      "type": "function"
    },
    {
      "inputs": [
        {
          "internalType": "address",
          "name": "token",
          "type": "address"
        }
      ],
      "name": "getTokenState",
      "outputs": [
        {
          "components": [
            {
              "internalType": "bool",
              "name": "isActive",
              "type": "bool"
            },
            {
              "internalType": "bool",
              "name": "graduated",
              "type": "bool"
            },
            {
              "internalType": "uint256",
              "name": "okbCollected",
              "type": "uint256"
            },
            {
              "internalType": "uint256",
              "name": "tokensTraded",
              "type": "uint256"
            },
            {
              "internalType": "uint256",
              "name": "currentOkbReserve",
              "type": "uint256"
            },
            {
              "internalType": "uint256",
              "name": "currentTokenReserve",
              "type": "uint256"
            },
            {
              "internalType": "uint256",
              "name": "createdAt",
              "type": "uint256"
            },
            {
              "internalType": "uint256",
              "name": "graduatedAt",
              "type": "uint256"
            },
            {
              "internalType": "address",
              "name": "pool",
              "type": "address"
            }
          ],
          "internalType": "struct BondingCurveV1.TokenState",
          "name": "",
          "type": "tuple"
        }
      ],
      "stateMutability": "view",
      "type": "function"
    },
    {
      "inputs": [
        {
          "internalType": "address",
          "name": "token",
          "type": "address"
        }
      ],
      "name": "initializeToken",
      "outputs": [],
      "stateMutability": "nonpayable",
      "type": "function"
    },
    {
      "inputs": [
        {
          "internalType": "address",
          "name": "",
          "type": "address"
        }
      ],
      "name": "isInitializer",
      "outputs": [
        {
          "internalType": "bool",
          "name": "",
          "type": "bool"
        }
      ],
      "stateMutability": "view",
      "type": "function"
    },
    {
      "inputs": [],
      "name": "okbToken",
      "outputs": [
        {
          "internalType": "contract IERC20",
          "name": "",
          "type": "address"
        }
      ],
      "stateMutability": "view",
      "type": "function"
    },
    {
      "inputs": [],
      "name": "owner",
      "outputs": [
        {
          "internalType": "address",
          "name": "",
          "type": "address"
        }
      ],
      "stateMutability": "view",
      "type": "function"
    },
    {
      "inputs": [],
      "name": "pause",
      "outputs": [],
      "stateMutability": "nonpayable",
      "type": "function"
    },
    {
      "inputs": [],
      "name": "paused",
      "outputs": [
        {
          "internalType": "bool",
          "name": "",
          "type": "bool"
        }
      ],
      "stateMutability": "view",
      "type": "function"
    },
    {
      "inputs": [
        {
          "internalType": "address",
          "name": "erc20",
          "type": "address"
        },
        {
          "internalType": "uint256",
          "name": "amount",
          "type": "uint256"
        },
        {
          "internalType": "address",
          "name": "to",
          "type": "address"
        }
      ],
      "name": "recoverERC20",
      "outputs": [],
      "stateMutability": "nonpayable",
      "type": "function"
    },
    {
      "inputs": [],
      "name": "renounceOwnership",
      "outputs": [],
      "stateMutability": "nonpayable",
      "type": "function"
    },
    {
      "inputs": [
        {
          "internalType": "address",
          "name": "token",
          "type": "address"
        },
        {
          "internalType": "uint256",
          "name": "tokensIn",
          "type": "uint256"
        },
        {
          "internalType": "uint256",
          "name": "minOkbOut",
          "type": "uint256"
        }
      ],
      "name": "sellTokens",
      "outputs": [],
      "stateMutability": "nonpayable",
      "type": "function"
    },
    {
      "inputs": [
        {
          "internalType": "address",
          "name": "who",
          "type": "address"
        },
        {
          "internalType": "bool",
          "name": "allowed",
          "type": "bool"
        }
      ],
      "name": "setInitializer",
      "outputs": [],
      "stateMutability": "nonpayable",
      "type": "function"
    },
    {
      "inputs": [
        {
          "internalType": "uint256",
          "name": "",
          "type": "uint256"
        }
      ],
      "name": "tokenList",
      "outputs": [
        {
          "internalType": "address",
          "name": "",
          "type": "address"
        }
      ],
      "stateMutability": "view",
      "type": "function"
    },
    {
      "inputs": [
        {
          "internalType": "address",
          "name": "",
          "type": "address"
        }
      ],
      "name": "tokenStates",
      "outputs": [
        {
          "internalType": "bool",
          "name": "isActive",
          "type": "bool"
        },
        {
          "internalType": "bool",
          "name": "graduated",
          "type": "bool"
        },
        {
          "internalType": "uint256",
          "name": "okbCollected",
          "type": "uint256"
        },
        {
          "internalType": "uint256",
          "name": "tokensTraded",
          "type": "uint256"
        },
        {
          "internalType": "uint256",
          "name": "currentOkbReserve",
          "type": "uint256"
        },
        {
          "internalType": "uint256",
          "name": "currentTokenReserve",
          "type": "uint256"
        },
        {
          "internalType": "uint256",
          "name": "createdAt",
          "type": "uint256"
        },
        {
          "internalType": "uint256",
          "name": "graduatedAt",
          "type": "uint256"
        },
        {
          "internalType": "address",
          "name": "pool",
          "type": "address"
        }
      ],
      "stateMutability": "view",
      "type": "function"
    },
    {
      "inputs": [
        {
          "internalType": "address",
          "name": "newOwner",
          "type": "address"
        }
      ],
      "name": "transferOwnership",
      "outputs": [],
      "stateMutability": "nonpayable",
      "type": "function"
    },
    {
      "inputs": [],
      "name": "unpause",
      "outputs": [],
      "stateMutability": "nonpayable",
      "type": "function"
    },
    {
      "inputs": [
        {
          "components": [
            {
              "internalType": "uint256",
              "name": "graduationThreshold",
              "type": "uint256"
            },
            {
              "internalType": "uint256",
              "name": "minimumPurchase",
              "type": "uint256"
            },
            {
              "internalType": "uint16",
              "name": "buyFeeBps",
              "type": "uint16"
            },
            {
              "internalType": "uint16",
              "name": "sellFeeBps",
              "type": "uint16"
            },
            {
              "internalType": "uint16",
              "name": "dexSeedOkbBps",
              "type": "uint16"
            },
            {
              "internalType": "uint16",
              "name": "dexSeedTokenBps",
              "type": "uint16"
            },
            {
              "internalType": "address",
              "name": "feeRecipient",
              "type": "address"
            },
            {
              "internalType": "address",
              "name": "graduationFeeRecipient",
              "type": "address"
            },
            {
              "internalType": "address",
              "name": "routeContract",
              "type": "address"
            },
            {
              "internalType": "uint256",
              "name": "virtualOkbReserve",
              "type": "uint256"
            },
            {
              "internalType": "uint256",
              "name": "virtualTokenReserve",
              "type": "uint256"
            }
          ],
          "internalType": "struct BondingCurveV1.GlobalConfig",
          "name": "newConfig",
          "type": "tuple"
        }
      ],
      "name": "updateConfig",
      "outputs": [],
      "stateMutability": "nonpayable",
      "type": "function"
    },
    {
      "inputs": [
        {
          "internalType": "address",
          "name": "newGraduationFeeRecipient",
          "type": "address"
        }
      ],
      "name": "updateGraduationFeeRecipient",
      "outputs": [],
      "stateMutability": "nonpayable",
      "type": "function"
    },
    {
      "inputs": [
        {
          "internalType": "uint256",
          "name": "newMinimumPurchase",
          "type": "uint256"
        }
      ],
      "name": "updateMinimumPurchase",
      "outputs": [],
      "stateMutability": "nonpayable",
      "type": "function"
    }
  ],
  "bytecode": "0x60a06040523461027157604051601f612a3238819003918201601f19168301916001600160401b0383118484101761020257808492604094855283398101031261027157610058602061005183610276565b9201610276565b906001600055331561025b5760018054336001600160a01b0319821681179092556040519291906001600160a01b03167f8be0079c531659141344cd1fd0a4f28419497f9722a3daafe3b4186f6b6457e0600080a36001600160a01b03169081151580610249575b1561021857506080526040519061016082016001600160401b038111838210176102025760409081526804563918244f40000080845267016345785d8a00006020850181905260648584018190526060860152612693608086015261271060a08601526001600160a01b03841660c0860181905260e086018190526000610100870152680178168a6b0516000061012087018190526b0376068e9b38afb505040000610140909701879052600293909355600391909155600480546001600160e01b03191694841b600160401b600160e01b03169490941767271026930064006417909355600580546001600160a01b0319908116909417905560068054909316909255600791909155600891909155516127a7908161028b82396080518181816106020152818161065c015281816109f6015281816119d40152611f120152f35b634e487b7160e01b600052604160045260246000fd5b62461bcd60e51b815260206004820152600c60248201526b5a45524f5f4144445245535360a01b6044820152606490fd5b506001600160a01b03831615156100c0565b631e4fbdf760e01b600052600060045260246000fd5b600080fd5b51906001600160a01b03821682036102715756fe608080604052600436101561001357600080fd5b600090813560e01c90816304389f9f14611421575080630b3eb970146112e75780631e4c7292146112c0578063234a6ed81461104f578063273cbaa014610f875780632cc7298014610eff5780633a2cf2a114610e665780633f4ba83a14610df65780635c975abb14610dd057806363d6c12014610d60578063670171fd14610d3a578063715018a614610cdd57806379502c5514610c3b578063829b544b14610bfc5780638456cb5914610b9957806384cc315b14610ae457806385d63cce14610ac857806389cb096a14610a255780638be757e2146109e05780638da5cb5b146109b7578063902d55a5146109905780639ead72221461094c578063a82b4d4314610929578063b51609b4146108ce578063c2f455b514610795578063d2395dcd1461071e578063d73792a914610701578063e4e57b9e146104a3578063f2fde38b1461041a578063fa3efb89146101ca5763fa3ff8331461017657600080fd5b346101c75760203660031901126101c75760043561019261191b565b61019d811515611824565b6003557ffe891c6ab12cf73707f8deb6600c12ba382e4cc31eb2b0a2754cad13075ed2d18180a180f35b80fd5b50346101c7576101603660031901126101c7576101e561191b565b6103e861ffff6101f3611797565b16111580610403575b156103cf576001600160a01b036102116117b9565b1615610395576102326001600160a01b0361022a6117cf565b1615156116d2565b6101243580151580610389575b610248906117e5565b602435610256811515611824565b60043560025560035561ffff61026a611797565b166004549063ffff000061027c6117a8565b60101b169060843561ffff811681036103855760a4359261ffff841684036103815767ffff0000000000009265ffff000000009168010000000000000000600160e01b036102c86117b9565b60401b169667ffffffffffffffff63ffffffff60e01b019286199165ffffffffffff1916171617169160201b16179160301b16171760045560018060a01b0361030f6117cf565b166001600160601b0360a01b60055416176005556101043560018060a01b0381169081810361037d57506001600160601b0360a01b6006541617600655600755610144356008557ffe891c6ab12cf73707f8deb6600c12ba382e4cc31eb2b0a2754cad13075ed2d18180a180f35b8380fd5b8680fd5b8580fd5b5061014435151561023f565b60405162461bcd60e51b815260206004820152601260248201527116915493d7d1915157d49150d2541251539560721b6044820152606490fd5b60405162461bcd60e51b815260206004820152600c60248201526b08c8a8abea89e9ebe90928e960a31b6044820152606490fd5b506103e861ffff6104126117a8565b1611156101fc565b50346101c75760203660031901126101c757610434611528565b61043c61191b565b6001600160a01b0316801561048f57600180546001600160a01b0319811683179091556001600160a01b03167f8be0079c531659141344cd1fd0a4f28419497f9722a3daafe3b4186f6b6457e08380a380f35b631e4fbdf760e01b82526004829052602482fd5b50346101c7576104b236611574565b90916104bc611944565b6104c46118fb565b6001600160a01b03168084526009602052604084205490919060ff16806106e7575b6104ef906115f3565b6104fa83151561171e565b81845260096020526040842090823b156106e35760405163079cc67960e41b815233600482015260248101859052858160448183885af180156106d857610697575b506105b46002836105a1936105c08860037fa0fe9740856690637d999c103293d3c823fc3b81443c34c6004bb582ab4b616698018054906105b960048701958654936105a961271061058f888885611c0b565b9d8e61ffff60045460101c1690611632565b04809d61167b565b9a8b92831015611757565b61167b565b9055611688565b9055600181018054848082111561068e576105da9161167b565b905b550180548680821115610685576105f29161167b565b905b5581610645575b61062681337f0000000000000000000000000000000000000000000000000000000000000000611bca565b6040805195865260208601919091528401523392606090a36001815580f35b60045461068090839060401c6001600160a01b03167f0000000000000000000000000000000000000000000000000000000000000000611bca565b6105fb565b505086906105f4565b505088906105dc565b60027fa0fe9740856690637d999c103293d3c823fc3b81443c34c6004bb582ab4b616693876106cd6105a195996105b4956115d1565b97935093505061053c565b6040513d88823e3d90fd5b8480fd5b508184526009602052604084205460081c60ff16156104e6565b50346101c757806003193601126101c75760206040516127108152f35b50346101c75761077261073036611574565b90610739611944565b6107416118fb565b6001600160a01b0383168086526009602052604086205460ff1680610779575b61076b91506115f3565b33926119aa565b6001815580f35b508552600960205261076b60ff604087205460081c1615610761565b50346101c75760403660031901126101c75760406107b1611528565b6001600160a01b031682526009602052902060405190602435906108c2906108a4906107dc8561159e565b610859815460ff80821615159182895260081c16158015602089015260018401546040890152600284015460608901526003840154976080810198895261010060048601549560a08301968752600581015460c0840152600681015460e0840152600760018060a01b0391015416910152816108c6575b506115f3565b61089e61086a858751845190611c0b565b9461089761271061088461ffff60045460101c1689611632565b0497610890898961167b565b905161167b565b9251611688565b906118b7565b92604051938493846040919493926060820195825260208201520152565b0390f35b905038610853565b50346101c75760603660031901126101c7576108e8611528565b6044356001600160a01b038116919082810361037d576109146109269361090d61191b565b1515611695565b602435916001600160a01b0316611bca565b80f35b50346101c757806003193601126101c7576020604051670de0b6b3a76400008152f35b50346101c75760203660031901126101c75760043590600a548210156101c757602061097783611543565b905460405160039290921b1c6001600160a01b03168152f35b50346101c757806003193601126101c75760206040516b033b2e3c9fd0803ce80000008152f35b50346101c757806003193601126101c7576001546040516001600160a01b039091168152602090f35b50346101c757806003193601126101c7576040517f00000000000000000000000000000000000000000000000000000000000000006001600160a01b03168152602090f35b50346101c75760203660031901126101c757610120906040906001600160a01b03610a4e611528565b16815260096020522080549060018101549060028101546003820154600483015490600584015492600685015494600760018060a01b03910154169560ff6040519881811615158a5260081c161515602089015260408801526060870152608086015260a085015260c084015260e0830152610100820152f35b50346101c757806003193601126101c757602090604051908152f35b50346101c75760203660031901126101c757602090610b91906040906001600160a01b03610b10611528565b1681526009845220604051610b248161159e565b60ff82548181161515835260081c1615158482015260018201546040820152600282015460608201526003820154908160808201526101006004840154938460a0840152600581015460c0840152600681015460e0840152600760018060a01b03910154169101526118b7565b604051908152f35b50346101c757806003193601126101c757610bb261191b565b610bba6118fb565b6001805460ff60a01b1916600160a01b1790556040513381527f62e78cea01bee320cd4e420270b5ea74000d11b0c9f74754ebdbfc544b05a25890602090a180f35b50346101c75760203660031901126101c75760209060ff906040906001600160a01b03610c27611528565b168152600b84522054166040519015158152f35b50346101c757806003193601126101c75761016060025460035460045460018060a01b036005541660018060a01b0360065416906007549260085494604051968752602087015261ffff8116604087015261ffff8160101c16606087015261ffff8160201c16608087015261ffff8160301c1660a087015260018060a01b039060401c1660c086015260e0850152610100840152610120830152610140820152f35b50346101c757806003193601126101c757610cf661191b565b600180546001600160a01b0319811690915581906001600160a01b03167f8be0079c531659141344cd1fd0a4f28419497f9722a3daafe3b4186f6b6457e08280a380f35b50346101c757806003193601126101c75760206040516aa56fa5b99019a5c80000008152f35b50346101c75760203660031901126101c757610d7a611528565b610d8261191b565b6001600160a01b0316610d968115156116d2565b6001600160601b0360a01b60055416176005557ffe891c6ab12cf73707f8deb6600c12ba382e4cc31eb2b0a2754cad13075ed2d18180a180f35b50346101c757806003193601126101c757602060ff60015460a01c166040519015158152f35b50346101c757806003193601126101c757610e0f61191b565b60015460ff8160a01c1615610e575760ff60a01b19166001556040513381527f5db9ee0a495bf2e6ff9c91a7834c1ba4fdd244a5e8aa4e537bd38aeae4b073aa90602090a180f35b638dfc202b60e01b8252600482fd5b50346101c75760803660031901126101c757610e80611528565b6064356001600160a01b0381169182820361037d57610ed661077293610ea4611944565b610eac6118fb565b6001600160a01b0383168087526009602052604087205460ff1680610ee3575b61090d91506115f3565b60443590602435906119aa565b508652600960205261090d60ff604088205460081c1615610ecc565b50346101c75760403660031901126101c757610f19611528565b602435908115159081830361037d577f7176efd3b1f37e0dd301af7f7695af1cb9cec0158b480cc0ccd7c3fb31bfe8be91610f7d602092610f5861191b565b60018060a01b031694858752600b8452604087209060ff801983541691151516179055565b604051908152a280f35b50346101c757806003193601126101c757604051806020600a5491828152018091600a85527fc65a7bb8d6351c1cf70c95a316cc6a92839c986682d98bc35f958f4883f9d2a890855b8181106110305750505082610fe69103836115d1565b604051928392602084019060208552518091526040840192915b81811061100e575050500390f35b82516001600160a01b0316845285945060209384019390920191600101611000565b82546001600160a01b0316845260209093019260019283019201610fd0565b50346101c75760203660031901126101c757611069611528565b338252600b60205260ff60408320541680156112ac575b156112785761108d6118fb565b6001600160a01b0316801561124657808252600960205260ff604083205416611210576007546007600854604051906110c58261159e565b600182526020820193868552604083019187835260608401918883526080850190815260a0850191825260c085019242845260e08601948a86526101008701988b8a528a8c52600960205261112d60408d2098511515899060ff801983541691151516179055565b51875461ff00191690151560081b61ff00161787555160018701555160028601555160038501555160048401555160058301555160068201559151910180546001600160a01b0319166001600160a01b0392909216919091179055600a54680100000000000000008110156111fc578060016111ac9201600a55611543565b81549060031b9083821b9160018060a01b03901b19161790557f9656fa3ee9769c0d6de8ae1f79cca49ee9cb74a9c3db804cb9544b4e5b63a4f0604060075460085482519182526020820152a280f35b634e487b7160e01b83526041600452602483fd5b60405162461bcd60e51b815260206004820152600e60248201526d414c52454144595f41435449564560901b6044820152606490fd5b60405162461bcd60e51b815260206004820152600a6024820152692d22a927afaa27a5a2a760b11b6044820152606490fd5b60405162461bcd60e51b815260206004820152600c60248201526b15539055551213d49256915160a21b6044820152606490fd5b506001546001600160a01b03163314611080565b50346101c757806003193601126101c75760206040516b0295be96e6406697200000008152f35b50346101c75760203660031901126101c757604061012091611307611528565b8161010084516113168161159e565b82815282602082015282868201528260608201528260808201528260a08201528260c08201528260e0820152015260018060a01b031681526009602052206040516113608161159e565b81549160ff831615159283835260ff602084019160081c16151581526001820154604084019081526002830154606085019081526003840154906080860191825260048501549260a0870193845260058601549460c0880195865261010060068801549760e08a01988952600760018060a01b0391015416980197885260405198895251151560208901525160408801525160608701525160808601525160a08501525160c08401525160e083015260018060a01b03905116610100820152f35b905034611524576040366003190112611524576108c26108a46040611444611528565b6001600160a01b03168552600960205290932060243593906114658461159e565b6114e1815460ff80821615159182885260081c16158015602088015260018401546040880152600284015460608801526003840154966080810197885261010060048601549560a08301968752600581015460c0840152600681015460e0840152600760018060a01b0391015416910152816108c657506115f3565b61089e6115026127106114fa61ffff6004541689611632565b04809761167b565b9461151d611514878351865190611870565b96879251611688565b925161167b565b5080fd5b600435906001600160a01b038216820361153e57565b600080fd5b600a5481101561155e57600a60005260206000200190600090565b634e487b7160e01b600052603260045260246000fd5b606090600319011261153e576004356001600160a01b038116810361153e57906024359060443590565b610120810190811067ffffffffffffffff8211176115bb57604052565b634e487b7160e01b600052604160045260246000fd5b90601f8019910116810190811067ffffffffffffffff8211176115bb57604052565b156115fa57565b60405162461bcd60e51b815260206004820152601060248201526f544f4b454e5f4e4f545f41435449564560801b6044820152606490fd5b8181029291811591840414171561164557565b634e487b7160e01b600052601160045260246000fd5b8115611665570490565b634e487b7160e01b600052601260045260246000fd5b9190820391821161164557565b9190820180921161164557565b1561169c57565b60405162461bcd60e51b815260206004820152600e60248201526d16915493d7d49150d2541251539560921b6044820152606490fd5b156116d957565b60405162461bcd60e51b815260206004820152601d60248201527f5a45524f5f47524144554154494f4e5f4645455f524543495049454e540000006044820152606490fd5b1561172557565b60405162461bcd60e51b815260206004820152600a60248201526916915493d7d25394155560b21b6044820152606490fd5b1561175e57565b60405162461bcd60e51b815260206004820152601160248201527014d31254141051d157d15610d151511151607a1b6044820152606490fd5b60443561ffff8116810361153e5790565b60643561ffff8116810361153e5790565b60c4356001600160a01b038116810361153e5790565b60e4356001600160a01b038116810361153e5790565b156117ec57565b60405162461bcd60e51b815260206004820152601060248201526f494e56414c49445f524553455256455360801b6044820152606490fd5b1561182b57565b60405162461bcd60e51b815260206004820152601860248201527f494e56414c49445f4d494e494d554d5f505552434841534500000000000000006044820152606490fd5b908261189f6118ab946118a59361188882151561171e565b851515806118ae575b61189a906117e5565b611632565b92611688565b9061165b565b90565b50801515611891565b9081158015806118f2575b6118cb906117e5565b670de0b6b3a76400008302928304670de0b6b3a7640000141715611645576118ab9161165b565b508115156118c2565b60ff60015460a01c1661190a57565b63d93c066560e01b60005260046000fd5b6001546001600160a01b0316330361192f57565b63118cdaa760e01b6000523360045260246000fd5b600260005414611955576002600055565b633ee5aeb560e01b60005260046000fd5b1561196d57565b60405162461bcd60e51b815260206004820152601560248201527410d554959157d4d55414131657d15610d151511151605a1b6044820152606490fd5b926000926119b983151561171e565b600160a01b60019003851691828552600960205260408520947f0000000000000000000000000000000000000000000000000000000000000000906040516323b872dd60e01b602082015233602482015230604482015286606482015260648152611a256084826115d1565b611a2f90836126ea565b60045461ffff16611a409087611632565b612710900491611a50838861167b565b97886003820196875492600481018054611a6b858288611870565b809b8195821015611a7b90611757565b6002850197885497611a8d848a611688565b6b0295be96e6406697200000001015611aa590611966565b611aae91611688565b9055611ab99161167b565b90556001019a8b5490611acb91611688565b8b55611ad691611688565b90558280611ba7575b5050843b156101c7576040516340c10f1960e01b81526001600160a01b0384166004820152602481018590528181604481838a5af18015611b9c57917f377aadedb6b2a771959584d10a6a36eccb5f56b4eb3a48525f76108d2660d8d495949391611b7193611b8c575b505060405193849360018060a01b031697846040919493926060820195825260208201520152565b0390a3546002541115611b815750565b611b8a90611c88565b565b81611b96916115d1565b38611b49565b6040513d84823e3d90fd5b600454611bc39260409190911c6001600160a01b031690611bca565b3882611adf565b60405163a9059cbb60e01b60208201526001600160a01b03929092166024830152604480830193909352918152611b8a91611c066064836115d1565b6126ea565b611c1683151561171e565b80151580611c7f575b611c28906117e5565b81831015611c41578261189f6118ab946118a593611632565b60405162461bcd60e51b8152602060048201526016602482015275494e53554646494349454e545f4c495155494449545960501b6044820152606490fd5b50811515611c1f565b6001600160a01b031660008181526009602052604081208054600881901c60ff166126e4576101009061ff00191617815560068101904282558360008051602061275283398151915260c060405160808152601560808201527439ba30b93a23b930b23ab0ba34b7b71d3132b3b4b760591b60a0820152866020820152866040820152866060820152a2833b1561228d5760405162d5441b60e81b8152838160048183895af190816126d0575b50611d9b57918060c0926000805160206127528339815191529461ff0019815416905555604051906080825260166080830152751cdd185c9d11dc98591d585d1a5bdb8e99985a5b195960521b60a08301528060208301528060408301526060820152a2565b918360008051602061275283398151915260c0604051608081526014608082015273737461727447726164756174696f6e3a646f6e6560601b60a0820152846020820152846040820152846060820152a2611e086b0295be96e64066972000000060028501541115611966565b833b156101c7576040516340c10f1960e01b81523060048201526aa56fa5b99019a5c80000006024820152818160448183895af18015611b9c579082916126bb575b50508360008051602061275283398151915260c06040516080815260136080820152721d1c985b9cd9995c8e98d85b18dd5b185d1959606a1b60a08201528460208201526aa56fa5b99019a5c80000006040820152846060820152a28360008051602061275283398151915260c060405160808152601360808201527236b4b3b930ba34b7b72fb332b29d3132b3b4b760691b60a0820152670de0b6b3a76400006020820152846040820152846060820152a26040516370a0823160e01b81523060048201527f00000000000000000000000000000000000000000000000000000000000000006001600160a01b0381169391602081602481885afa9081156126b057849161267d575b50602494602091670de0b6b3a76400001161260d57611fae60018060a01b03600554166040519063a9059cbb60e01b8583015288820152670de0b6b3a7640000604482015260448152611fa86064826115d1565b846126ea565b8760008051602061275283398151915260c06040516080815260126080820152711b5a59dc985d1a5bdb97d999594e9c185a5960721b60a0820152670de0b6b3a764000086820152886040820152886060820152a25b6040516370a0823160e01b815230600482015295869182905afa9384156126025783946125ce575b508560008051602061275283398151915260c060405160808152600e60808201526d199d5b991cce98dbdb5c1d5d195960921b60a08201528760208201526aa56fa5b99019a5c80000006040820152866060820152a260065484906001600160a01b0316801515806125c5575b806125bd575b612291575b5050508460008051602061275283398151915260c060405160808152601860808201527f636f6d706c65746547726164756174696f6e3a626567696e000000000000000060a08201528660208201526aa56fa5b99019a5c80000006040820152856060820152a2843b15611524576040516343e63ea560e11b815260048101839052828082602481838b5af19182612278575b50506121b057908060c093926000805160206127528339815191529561ff00198154169055556040519160808352601960808401527f636f6d706c65746547726164756174696f6e3a6661696c65640000000000000060a084015260208301526aa56fa5b99019a5c800000060408301526060820152a2565b5060809160077f5ec1e9daf7affe04984801e0d07de6448f00139d72977b7c948bf698bd353f76948660008051602061275283398151915260c06040518881526017898201527f636f6d706c65746547726164756174696f6e3a646f6e6500000000000000000060a08201528660208201526aa56fa5b99019a5c80000006040820152876060820152a2016001600160601b0360a01b815416905560405191825260208201526aa56fa5b99019a5c80000006040820152670de0b6b3a76400006060820152a2565b81612282916115d1565b61228d578238612137565b8280fd5b6122f5928860008051602061275283398151915260c06040516080815260146080820152733937baba329d3a3930b739b332b91d3132b3b4b760611b60a08201528660208201526aa56fa5b99019a5c80000006040820152856060820152a2611bca565b61239060018060a01b03600654168660008051602061275283398151915260c06040516080815260156080820152741c9bdd5d194e9bdad88e9d1c985b9cd9995c9c9959605a1b60a0820152886020820152876040820152846060820152a26040519063a9059cbb60e01b602083015260248201526aa56fa5b99019a5c800000060448201526044815261238a6064826115d1565b866126ea565b60018060a01b03600654168560008051602061275283398151915260c060405160808152601760808201527f726f7574653a746f6b656e3a7472616e7366657272656400000000000000000060a08201528660208201526aa56fa5b99019a5c80000006040820152846060820152a2803b1561228d5782808092608460405180958193630cd75e1160e41b83528c6004840152610bb86024840152620d89b3196044840152620d89b460648401525af191826125a8575b5050612534578460008051602061275283398151915260c060018060a01b03600654166040519060808252601760808301527f726f7574653a637265617465506f6f6c3a6661696c656400000000000000000060a08301528760208301526aa56fa5b99019a5c800000060408301526060820152a25b8460008051602061275283398151915260c060018060a01b03600654166040519060808252601860808301527f726f7574653a7472616e736665723a636f6d706c65746564000000000000000060a08301528760208301526aa56fa5b99019a5c800000060408301526060820152a23883816120a4565b8460008051602061275283398151915260c060018060a01b03600654166040519060808252601860808301527f726f7574653a637265617465506f6f6c3a73756363657373000000000000000060a08301528760208301526aa56fa5b99019a5c800000060408301526060820152a26124bd565b816125b2916115d1565b61228d578238612447565b50600161209f565b50811515612099565b9093506020813d6020116125fa575b816125ea602093836115d1565b8101031261153e5751923861202c565b3d91506125dd565b6040513d85823e3d90fd5b8760008051602061275283398151915260e060405160808152602260808201527f6d6967726174696f6e5f6665653a696e73756666696369656e745f62616c616e60a082015261636560f01b60c0820152670de0b6b3a764000086820152886040820152886060820152a2612004565b90506020813d6020116126a8575b81612698602093836115d1565b8101031261153e57516024611f54565b3d915061268b565b6040513d86823e3d90fd5b816126c5916115d1565b6101c7578038611e4a565b846126dd919592956115d1565b9238611d35565b50505050565b906000602091828151910182855af115612745576000513d61273c57506001600160a01b0381163b155b61271b5750565b635274afe760e01b60009081526001600160a01b0391909116600452602490fd5b60011415612714565b6040513d6000823e3d90fdfedc87d61384cd71d6e205f47fbd1348c935cbcdde92b397021049321deef12217a264697066735822122086450f80f009e6759ae543af00501842ffb4cd07eb5d2d7c0b296db2df76cba564736f6c634300081c0033",
  "linkReferences": {},
  "deployedLinkReferences": {}
}