{
  "_format": "hh-sol-artifact-1",
  "contractName": "BondingCurveV3_Final",
  "sourceName": "contracts/BondingCurveV3_Final.sol",
  "abi": [
    {
      "inputs": [
        {
          "internalType": "address",
          "name": "_okbToken",
          "type": "address"
        },
        {
          "internalType": "address",
          "name": "_feeRecipient",
          "type": "address"
        }
      ],
      "stateMutability": "nonpayable",
      "type": "constructor"
    },
    {
      "inputs": [],
      "name": "EnforcedPause",
      "type": "error"
    },
    {
      "inputs": [],
      "name": "ExpectedPause",
      "type": "error"
    },
    {
      "inputs": [
        {
          "internalType": "address",
          "name": "owner",
          "type": "address"
        }
      ],
      "name": "OwnableInvalidOwner",
      "type": "error"
    },
    {
      "inputs": [
        {
          "internalType": "address",
          "name": "account",
          "type": "address"
        }
      ],
      "name": "OwnableUnauthorizedAccount",
      "type": "error"
    },
    {
      "inputs": [],
      "name": "ReentrancyGuardReentrantCall",
      "type": "error"
    },
    {
      "inputs": [
        {
          "internalType": "address",
          "name": "token",
          "type": "address"
        }
      ],
      "name": "SafeERC20FailedOperation",
      "type": "error"
    },
    {
      "anonymous": false,
      "inputs": [],
      "name": "ConfigUpdated",
      "type": "event"
    },
    {
      "anonymous": false,
      "inputs": [
        {
          "indexed": true,
          "internalType": "address",
          "name": "token",
          "type": "address"
        },
        {
          "indexed": false,
          "internalType": "string",
          "name": "step",
          "type": "string"
        },
        {
          "indexed": false,
          "internalType": "uint256",
          "name": "okbAmount",
          "type": "uint256"
        },
        {
          "indexed": false,
          "internalType": "uint256",
          "name": "tokenAmount",
          "type": "uint256"
        },
        {
          "indexed": false,
          "internalType": "address",
          "name": "pool",
          "type": "address"
        }
      ],
      "name": "GraduationStep",
      "type": "event"
    },
    {
      "anonymous": false,
      "inputs": [
        {
          "indexed": true,
          "internalType": "address",
          "name": "initializer",
          "type": "address"
        },
        {
          "indexed": false,
          "internalType": "bool",
          "name": "allowed",
          "type": "bool"
        }
      ],
      "name": "InitializerSet",
      "type": "event"
    },
    {
      "anonymous": false,
      "inputs": [
        {
          "indexed": true,
          "internalType": "address",
          "name": "integration",
          "type": "address"
        }
      ],
      "name": "IzumiIntegrationSet",
      "type": "event"
    },
    {
      "anonymous": false,
      "inputs": [
        {
          "indexed": true,
          "internalType": "address",
          "name": "previousOwner",
          "type": "address"
        },
        {
          "indexed": true,
          "internalType": "address",
          "name": "newOwner",
          "type": "address"
        }
      ],
      "name": "OwnershipTransferred",
      "type": "event"
    },
    {
      "anonymous": false,
      "inputs": [
        {
          "indexed": false,
          "internalType": "address",
          "name": "account",
          "type": "address"
        }
      ],
      "name": "Paused",
      "type": "event"
    },
    {
      "anonymous": false,
      "inputs": [
        {
          "indexed": true,
          "internalType": "address",
          "name": "token",
          "type": "address"
        },
        {
          "indexed": false,
          "internalType": "address",
          "name": "pool",
          "type": "address"
        },
        {
          "indexed": false,
          "internalType": "uint256",
          "name": "okbSeeded",
          "type": "uint256"
        },
        {
          "indexed": false,
          "internalType": "uint256",
          "name": "tokenSeeded",
          "type": "uint256"
        },
        {
          "indexed": false,
          "internalType": "uint256",
          "name": "migrationFee",
          "type": "uint256"
        }
      ],
      "name": "TokenGraduated",
      "type": "event"
    },
    {
      "anonymous": false,
      "inputs": [
        {
          "indexed": true,
          "internalType": "address",
          "name": "token",
          "type": "address"
        },
        {
          "indexed": false,
          "internalType": "uint256",
          "name": "okbReserve",
          "type": "uint256"
        },
        {
          "indexed": false,
          "internalType": "uint256",
          "name": "tokenReserve",
          "type": "uint256"
        }
      ],
      "name": "TokenInitialized",
      "type": "event"
    },
    {
      "anonymous": false,
      "inputs": [
        {
          "indexed": true,
          "internalType": "address",
          "name": "token",
          "type": "address"
        },
        {
          "indexed": true,
          "internalType": "address",
          "name": "buyer",
          "type": "address"
        },
        {
          "indexed": false,
          "internalType": "uint256",
          "name": "okbIn",
          "type": "uint256"
        },
        {
          "indexed": false,
          "internalType": "uint256",
          "name": "tokensOut",
          "type": "uint256"
        },
        {
          "indexed": false,
          "internalType": "uint256",
          "name": "fee",
          "type": "uint256"
        }
      ],
      "name": "TokensPurchased",
      "type": "event"
    },
    {
      "anonymous": false,
      "inputs": [
        {
          "indexed": true,
          "internalType": "address",
          "name": "token",
          "type": "address"
        },
        {
          "indexed": true,
          "internalType": "address",
          "name": "seller",
          "type": "address"
        },
        {
          "indexed": false,
          "internalType": "uint256",
          "name": "tokensIn",
          "type": "uint256"
        },
        {
          "indexed": false,
          "internalType": "uint256",
          "name": "okbOut",
          "type": "uint256"
        },
        {
          "indexed": false,
          "internalType": "uint256",
          "name": "fee",
          "type": "uint256"
        }
      ],
      "name": "TokensSold",
      "type": "event"
    },
    {
      "anonymous": false,
      "inputs": [
        {
          "indexed": false,
          "internalType": "address",
          "name": "account",
          "type": "address"
        }
      ],
      "name": "Unpaused",
      "type": "event"
    },
    {
      "inputs": [],
      "name": "CURVE_SUPPLY",
      "outputs": [
        {
          "internalType": "uint256",
          "name": "",
          "type": "uint256"
        }
      ],
      "stateMutability": "view",
      "type": "function"
    },
    {
      "inputs": [],
      "name": "FEE_DENOMINATOR",
      "outputs": [
        {
          "internalType": "uint256",
          "name": "",
          "type": "uint256"
        }
      ],
      "stateMutability": "view",
      "type": "function"
    },
    {
      "inputs": [],
      "name": "LP_SUPPLY",
      "outputs": [
        {
          "internalType": "uint256",
          "name": "",
          "type": "uint256"
        }
      ],
      "stateMutability": "view",
      "type": "function"
    },
    {
      "inputs": [],
      "name": "MIGRATION_FEE",
      "outputs": [
        {
          "internalType": "uint256",
          "name": "",
          "type": "uint256"
        }
      ],
      "stateMutability": "view",
      "type": "function"
    },
    {
      "inputs": [
        {
          "internalType": "address",
          "name": "token",
          "type": "address"
        },
        {
          "internalType": "uint256",
          "name": "okbIn",
          "type": "uint256"
        },
        {
          "internalType": "uint256",
          "name": "minTokensOut",
          "type": "uint256"
        }
      ],
      "name": "buyTokens",
      "outputs": [],
      "stateMutability": "nonpayable",
      "type": "function"
    },
    {
      "inputs": [],
      "name": "config",
      "outputs": [
        {
          "internalType": "uint256",
          "name": "graduationThreshold",
          "type": "uint256"
        },
        {
          "internalType": "uint16",
          "name": "buyFeeBps",
          "type": "uint16"
        },
        {
          "internalType": "uint16",
          "name": "sellFeeBps",
          "type": "uint16"
        },
        {
          "internalType": "uint16",
          "name": "dexSeedOkbBps",
          "type": "uint16"
        },
        {
          "internalType": "uint16",
          "name": "dexSeedTokenBps",
          "type": "uint16"
        },
        {
          "internalType": "address",
          "name": "feeRecipient",
          "type": "address"
        },
        {
          "internalType": "uint256",
          "name": "virtualOkbReserve",
          "type": "uint256"
        },
        {
          "internalType": "uint256",
          "name": "virtualTokenReserve",
          "type": "uint256"
        }
      ],
      "stateMutability": "view",
      "type": "function"
    },
    {
      "inputs": [
        {
          "internalType": "address",
          "name": "token",
          "type": "address"
        }
      ],
      "name": "getCurrentPrice",
      "outputs": [
        {
          "internalType": "uint256",
          "name": "",
          "type": "uint256"
        }
      ],
      "stateMutability": "view",
      "type": "function"
    },
    {
      "inputs": [
        {
          "internalType": "address",
          "name": "token",
          "type": "address"
        },
        {
          "internalType": "uint256",
          "name": "okbIn",
          "type": "uint256"
        }
      ],
      "name": "getQuoteBuy",
      "outputs": [
        {
          "internalType": "uint256",
          "name": "tokensOut",
          "type": "uint256"
        },
        {
          "internalType": "uint256",
          "name": "priceAfter",
          "type": "uint256"
        },
        {
          "internalType": "uint256",
          "name": "fee",
          "type": "uint256"
        }
      ],
      "stateMutability": "view",
      "type": "function"
    },
    {
      "inputs": [
        {
          "internalType": "address",
          "name": "token",
          "type": "address"
        },
        {
          "internalType": "uint256",
          "name": "tokensIn",
          "type": "uint256"
        }
      ],
      "name": "getQuoteSell",
      "outputs": [
        {
          "internalType": "uint256",
          "name": "okbOut",
          "type": "uint256"
        },
        {
          "internalType": "uint256",
          "name": "priceAfter",
          "type": "uint256"
        },
        {
          "internalType": "uint256",
          "name": "fee",
          "type": "uint256"
        }
      ],
      "stateMutability": "view",
      "type": "function"
    },
    {
      "inputs": [],
      "name": "getTokenList",
      "outputs": [
        {
          "internalType": "address[]",
          "name": "",
          "type": "address[]"
        }
      ],
      "stateMutability": "view",
      "type": "function"
    },
    {
      "inputs": [
        {
          "internalType": "address",
          "name": "token",
          "type": "address"
        }
      ],
      "name": "getTokenState",
      "outputs": [
        {
          "components": [
            {
              "internalType": "bool",
              "name": "isActive",
              "type": "bool"
            },
            {
              "internalType": "bool",
              "name": "graduated",
              "type": "bool"
            },
            {
              "internalType": "uint256",
              "name": "okbCollected",
              "type": "uint256"
            },
            {
              "internalType": "uint256",
              "name": "tokensTraded",
              "type": "uint256"
            },
            {
              "internalType": "uint256",
              "name": "currentOkbReserve",
              "type": "uint256"
            },
            {
              "internalType": "uint256",
              "name": "currentTokenReserve",
              "type": "uint256"
            },
            {
              "internalType": "uint256",
              "name": "createdAt",
              "type": "uint256"
            },
            {
              "internalType": "uint256",
              "name": "graduatedAt",
              "type": "uint256"
            },
            {
              "internalType": "address",
              "name": "pool",
              "type": "address"
            }
          ],
          "internalType": "struct BondingCurveV3_Final.TokenState",
          "name": "",
          "type": "tuple"
        }
      ],
      "stateMutability": "view",
      "type": "function"
    },
    {
      "inputs": [
        {
          "internalType": "address",
          "name": "token",
          "type": "address"
        }
      ],
      "name": "initializeToken",
      "outputs": [],
      "stateMutability": "nonpayable",
      "type": "function"
    },
    {
      "inputs": [
        {
          "internalType": "address",
          "name": "",
          "type": "address"
        }
      ],
      "name": "isInitializer",
      "outputs": [
        {
          "internalType": "bool",
          "name": "",
          "type": "bool"
        }
      ],
      "stateMutability": "view",
      "type": "function"
    },
    {
      "inputs": [],
      "name": "izumiIntegration",
      "outputs": [
        {
          "internalType": "contract IIzumiIntegration",
          "name": "",
          "type": "address"
        }
      ],
      "stateMutability": "view",
      "type": "function"
    },
    {
      "inputs": [],
      "name": "okbToken",
      "outputs": [
        {
          "internalType": "contract IERC20",
          "name": "",
          "type": "address"
        }
      ],
      "stateMutability": "view",
      "type": "function"
    },
    {
      "inputs": [],
      "name": "owner",
      "outputs": [
        {
          "internalType": "address",
          "name": "",
          "type": "address"
        }
      ],
      "stateMutability": "view",
      "type": "function"
    },
    {
      "inputs": [],
      "name": "pause",
      "outputs": [],
      "stateMutability": "nonpayable",
      "type": "function"
    },
    {
      "inputs": [],
      "name": "paused",
      "outputs": [
        {
          "internalType": "bool",
          "name": "",
          "type": "bool"
        }
      ],
      "stateMutability": "view",
      "type": "function"
    },
    {
      "inputs": [
        {
          "internalType": "address",
          "name": "erc20",
          "type": "address"
        },
        {
          "internalType": "uint256",
          "name": "amount",
          "type": "uint256"
        },
        {
          "internalType": "address",
          "name": "to",
          "type": "address"
        }
      ],
      "name": "recoverERC20",
      "outputs": [],
      "stateMutability": "nonpayable",
      "type": "function"
    },
    {
      "inputs": [],
      "name": "renounceOwnership",
      "outputs": [],
      "stateMutability": "nonpayable",
      "type": "function"
    },
    {
      "inputs": [
        {
          "internalType": "address",
          "name": "token",
          "type": "address"
        },
        {
          "internalType": "uint256",
          "name": "tokensIn",
          "type": "uint256"
        },
        {
          "internalType": "uint256",
          "name": "minOkbOut",
          "type": "uint256"
        }
      ],
      "name": "sellTokens",
      "outputs": [],
      "stateMutability": "nonpayable",
      "type": "function"
    },
    {
      "inputs": [
        {
          "internalType": "address",
          "name": "who",
          "type": "address"
        },
        {
          "internalType": "bool",
          "name": "allowed",
          "type": "bool"
        }
      ],
      "name": "setInitializer",
      "outputs": [],
      "stateMutability": "nonpayable",
      "type": "function"
    },
    {
      "inputs": [
        {
          "internalType": "address",
          "name": "_izumiIntegration",
          "type": "address"
        }
      ],
      "name": "setIzumiIntegration",
      "outputs": [],
      "stateMutability": "nonpayable",
      "type": "function"
    },
    {
      "inputs": [
        {
          "internalType": "uint256",
          "name": "",
          "type": "uint256"
        }
      ],
      "name": "tokenList",
      "outputs": [
        {
          "internalType": "address",
          "name": "",
          "type": "address"
        }
      ],
      "stateMutability": "view",
      "type": "function"
    },
    {
      "inputs": [
        {
          "internalType": "address",
          "name": "",
          "type": "address"
        }
      ],
      "name": "tokenStates",
      "outputs": [
        {
          "internalType": "bool",
          "name": "isActive",
          "type": "bool"
        },
        {
          "internalType": "bool",
          "name": "graduated",
          "type": "bool"
        },
        {
          "internalType": "uint256",
          "name": "okbCollected",
          "type": "uint256"
        },
        {
          "internalType": "uint256",
          "name": "tokensTraded",
          "type": "uint256"
        },
        {
          "internalType": "uint256",
          "name": "currentOkbReserve",
          "type": "uint256"
        },
        {
          "internalType": "uint256",
          "name": "currentTokenReserve",
          "type": "uint256"
        },
        {
          "internalType": "uint256",
          "name": "createdAt",
          "type": "uint256"
        },
        {
          "internalType": "uint256",
          "name": "graduatedAt",
          "type": "uint256"
        },
        {
          "internalType": "address",
          "name": "pool",
          "type": "address"
        }
      ],
      "stateMutability": "view",
      "type": "function"
    },
    {
      "inputs": [
        {
          "internalType": "address",
          "name": "newOwner",
          "type": "address"
        }
      ],
      "name": "transferOwnership",
      "outputs": [],
      "stateMutability": "nonpayable",
      "type": "function"
    },
    {
      "inputs": [],
      "name": "unpause",
      "outputs": [],
      "stateMutability": "nonpayable",
      "type": "function"
    },
    {
      "inputs": [
        {
          "components": [
            {
              "internalType": "uint256",
              "name": "graduationThreshold",
              "type": "uint256"
            },
            {
              "internalType": "uint16",
              "name": "buyFeeBps",
              "type": "uint16"
            },
            {
              "internalType": "uint16",
              "name": "sellFeeBps",
              "type": "uint16"
            },
            {
              "internalType": "uint16",
              "name": "dexSeedOkbBps",
              "type": "uint16"
            },
            {
              "internalType": "uint16",
              "name": "dexSeedTokenBps",
              "type": "uint16"
            },
            {
              "internalType": "address",
              "name": "feeRecipient",
              "type": "address"
            },
            {
              "internalType": "uint256",
              "name": "virtualOkbReserve",
              "type": "uint256"
            },
            {
              "internalType": "uint256",
              "name": "virtualTokenReserve",
              "type": "uint256"
            }
          ],
          "internalType": "struct BondingCurveV3_Final.GlobalConfig",
          "name": "newConfig",
          "type": "tuple"
        }
      ],
      "name": "updateConfig",
      "outputs": [],
      "stateMutability": "nonpayable",
      "type": "function"
    }
  ],
  "bytecode": "0x60a06040523461022457604051601f6129f638819003918201601f19168301916001600160401b038311848410176101b557808492604094855283398101031261022457610058602061005183610229565b9201610229565b906001600055331561020e5760018054336001600160a01b0319821681179092556040519291906001600160a01b03167f8be0079c531659141344cd1fd0a4f28419497f9722a3daafe3b4186f6b6457e0600080a36001600160a01b031690811515806101fc575b156101cb575060805260405161010081016001600160401b038111828210176101b5576040908152680ad78ebc5ac6200000808352606460208401819052828401526127106060840181905260808401526001600160a01b03841660a08401526801a055690d9db8000060c084018190526b01a3616d128fda9ddb00000060e0909401849052600391909155600480546001600160e01b03191694831b600160401b600160e01b03169490941767271027100064006417909355600592909255600655516127b8908161023e823960805181818161038f015281816103e9015281816106ac01528181610adf0152611c6d0152f35b634e487b7160e01b600052604160045260246000fd5b62461bcd60e51b815260206004820152600c60248201526b5a45524f5f4144445245535360a01b6044820152606490fd5b506001600160a01b03831615156100c0565b631e4fbdf760e01b600052600060045260246000fd5b600080fd5b51906001600160a01b03821682036102245756fe608080604052600436101561001357600080fd5b600090813560e01c90816304389f9f14611426575080630b3eb970146112ec5780631e4c7292146112c5578063234a6ed81461100f578063273cbaa014610f475780632cc7298014610ebf5780632f2df3ee14610e965780633f4ba83a14610e265780635c975abb14610e00578063670171fd14610dda578063715018a614610d7d57806379502c5514610d08578063829b544b14610cc95780638456cb5914610c6657806384cc315b14610bb157806389cb096a14610b0e5780638be757e214610ac95780638da5cb5b14610aa05780639ead722214610a5c578063a82b4d4314610a39578063b51609b4146109aa578063c2f455b514610871578063d2395dcd14610647578063d73792a91461062a578063dfb1afbf14610459578063e4e57b9e14610248578063f2fde38b146101bf5763fe6428811461015557600080fd5b346101bc5760203660031901126101bc5761016e61152d565b610176611835565b600280546001600160a01b0319166001600160a01b039290921691821790557fe071a1693802c7c5f2ec36dfb633087614203016d30d8c23c22ce6aa952ab5cd8280a280f35b80fd5b50346101bc5760203660031901126101bc576101d961152d565b6101e1611835565b6001600160a01b0316801561023457600180546001600160a01b0319811683179091556001600160a01b03167f8be0079c531659141344cd1fd0a4f28419497f9722a3daafe3b4186f6b6457e08380a380f35b631e4fbdf760e01b82526004829052602482fd5b50346101bc5761025736611579565b909161026161191e565b610269611815565b6001600160a01b03168084526007602052604084205490919060ff168061043f575b610294906115f8565b61029f83151561169a565b81845260076020526040842090823b156104305760405163079cc67960e41b8152336004820152602481018590528590818160448183895af180156104345761041b575b505061035c600283610349936103688860037fa0fe9740856690637d999c103293d3c823fc3b81443c34c6004bb582ab4b6166980180549061036160048701958654936103516127106103378888856118a1565b9d8e61ffff60045460101c1690611637565b04809d611680565b9a8b928310156116d3565b611680565b905561168d565b905501805486808211156104125761037f91611680565b905b55816103d2575b6103b381337f000000000000000000000000000000000000000000000000000000000000000061185e565b6040805195865260208601919091528401523392606090a36001815580f35b60045461040d90839060401c6001600160a01b03167f000000000000000000000000000000000000000000000000000000000000000061185e565b610388565b50508690610381565b81610425916115d6565b6104305784386102e3565b8480fd5b6040513d84823e3d90fd5b508184526007602052604084205460081c60ff161561028b565b50346101bc576101003660031901126101bc57610474611835565b6103e861ffff610482611713565b16111580610613575b156105df576001600160a01b036104a0611735565b16156105a55760c4358015158061059a575b6104bb9061174b565b60043560035561ffff6104cc611713565b166004549063ffff00006104de611724565b60101b169060643561ffff81168103610596576084359261ffff841684036105925767ffff0000000000009265ffff000000009168010000000000000000600160e01b0361052a611735565b60401b169667ffffffffffffffff63ffffffff60e01b019286199165ffffffffffff1916171617169160201b16179160301b16171760045560055560e4356006557ffe891c6ab12cf73707f8deb6600c12ba382e4cc31eb2b0a2754cad13075ed2d18180a180f35b8680fd5b8580fd5b5060e43515156104b2565b60405162461bcd60e51b815260206004820152601260248201527116915493d7d1915157d49150d2541251539560721b6044820152606490fd5b60405162461bcd60e51b815260206004820152600c60248201526b08c8a8abea89e9ebe90928e960a31b6044820152606490fd5b506103e861ffff610622611724565b16111561048b565b50346101bc57806003193601126101bc5760206040516127108152f35b50346101bc5761065636611579565b9061065f61191e565b610667611815565b6001600160a01b0383168085526007602052604085205460ff1680610857575b610690906115f8565b61069b82151561169a565b8085526007602052610753604086207f00000000000000000000000000000000000000000000000000000000000000006107056040516323b872dd60e01b6020820152336024820152306044820152866064820152606481526106ff6084826115d6565b826126fb565b600261271061071a61ffff6004541688611637565b04926107268488611680565b9761075f6003830191825460048501936107588d86549361074882868361178a565b9c8d968710156116d3565b61168d565b9055611680565b90556107706001820198895461168d565b88550161077e84825461168d565b90558180610834575b5050823b15610592576040516340c10f1960e01b8152336004820152602481018390528790818160448183895af180156104345761081f575b50506040805194855260208501929092529083015233917f377aadedb6b2a771959584d10a6a36eccb5f56b4eb3a48525f76108d2660d8d490606090a3546003541115610810575b506001815580f35b61081990611958565b38610808565b81610829916115d6565b6105925786386107c0565b6004546108509260409190911c6001600160a01b03169061185e565b3881610787565b508085526007602052604085205460081c60ff1615610687565b50346101bc5760403660031901126101bc57604061088d61152d565b6001600160a01b0316825260076020529020604051906024359061099e90610980906108b8856115a3565b610935815460ff80821615159182895260081c16158015602089015260018401546040890152600284015460608901526003840154976080810198895261010060048601549560a08301968752600581015460c0840152600681015460e0840152600760018060a01b0391015416910152816109a2575b506115f8565b61097a6109468587518451906118a1565b9461097361271061096061ffff60045460101c1689611637565b04975161096d8989611680565b90611680565b925161168d565b906117d1565b92604051938493846040919493926060820195825260208201520152565b0390f35b90503861092f565b50346101bc5760603660031901126101bc576109c461152d565b604435906001600160a01b038216808303610a35576109e1611835565b156109ff576109fc91602435916001600160a01b031661185e565b80f35b60405162461bcd60e51b815260206004820152600e60248201526d16915493d7d49150d2541251539560921b6044820152606490fd5b8380fd5b50346101bc57806003193601126101bc576020604051670de0b6b3a76400008152f35b50346101bc5760203660031901126101bc57600435906008548210156101bc576020610a8783611548565b905460405160039290921b1c6001600160a01b03168152f35b50346101bc57806003193601126101bc576001546040516001600160a01b039091168152602090f35b50346101bc57806003193601126101bc576040517f00000000000000000000000000000000000000000000000000000000000000006001600160a01b03168152602090f35b50346101bc5760203660031901126101bc57610120906040906001600160a01b03610b3761152d565b16815260076020522080549060018101549060028101546003820154600483015490600584015492600685015494600760018060a01b03910154169560ff6040519881811615158a5260081c161515602089015260408801526060870152608086015260a085015260c084015260e0830152610100820152f35b50346101bc5760203660031901126101bc57602090610c5e906040906001600160a01b03610bdd61152d565b1681526007845220604051610bf1816115a3565b60ff82548181161515835260081c1615158482015260018201546040820152600282015460608201526003820154908160808201526101006004840154938460a0840152600581015460c0840152600681015460e0840152600760018060a01b03910154169101526117d1565b604051908152f35b50346101bc57806003193601126101bc57610c7f611835565b610c87611815565b6001805460ff60a01b1916600160a01b1790556040513381527f62e78cea01bee320cd4e420270b5ea74000d11b0c9f74754ebdbfc544b05a25890602090a180f35b50346101bc5760203660031901126101bc5760209060ff906040906001600160a01b03610cf461152d565b168152600984522054166040519015158152f35b50346101bc57806003193601126101bc576101006003546004546005546006549160405193845261ffff8116602085015261ffff8160101c16604085015261ffff8160201c16606085015261ffff8160301c16608085015260018060a01b039060401c1660a084015260c083015260e0820152f35b50346101bc57806003193601126101bc57610d96611835565b600180546001600160a01b0319811690915581906001600160a01b03167f8be0079c531659141344cd1fd0a4f28419497f9722a3daafe3b4186f6b6457e08280a380f35b50346101bc57806003193601126101bc5760206040516aa56fa5b99019a5c80000008152f35b50346101bc57806003193601126101bc57602060ff60015460a01c166040519015158152f35b50346101bc57806003193601126101bc57610e3f611835565b60015460ff8160a01c1615610e875760ff60a01b19166001556040513381527f5db9ee0a495bf2e6ff9c91a7834c1ba4fdd244a5e8aa4e537bd38aeae4b073aa90602090a180f35b638dfc202b60e01b8252600482fd5b50346101bc57806003193601126101bc576002546040516001600160a01b039091168152602090f35b50346101bc5760403660031901126101bc57610ed961152d565b6024359081151590818303610a35577f7176efd3b1f37e0dd301af7f7695af1cb9cec0158b480cc0ccd7c3fb31bfe8be91610f3d602092610f18611835565b60018060a01b03169485875260098452604087209060ff801983541691151516179055565b604051908152a280f35b50346101bc57806003193601126101bc5760405180602060085491828152018091600885527ff3f7a9fe364faab93b216da50a3214154f22a0a2b415b23a84c8169e8b636ee390855b818110610ff05750505082610fa69103836115d6565b604051928392602084019060208552518091526040840192915b818110610fce575050500390f35b82516001600160a01b0316845285945060209384019390920191600101610fc0565b82546001600160a01b0316845260209093019260019283019201610f90565b50346101bc5760203660031901126101bc5761102961152d565b338252600960205260ff60408320541680156112b1575b1561127d5761104d611815565b6001600160a01b031690811561124b57818152600760205260ff60408220541661121557813b156101bc5760405163b38eb9e360e01b8152818160048183875af1801561043457611205575b5090600554600760065491604051926110b1846115a3565b600184526020840191868352604085019187835260608601918883526080870190815260a0870191825260c087019242845260e08801948a86526101008901968b88528a8c528860205261111860408d209a5115158b9060ff801983541691151516179055565b51151561ff008a549160081b169061ff00191617895551600189015551600288015551600387015551600486015551600585015551600684015560018060a01b0390511691019060018060a01b03166bffffffffffffffffffffffff60a01b825416179055600854680100000000000000008110156111f1578060016111a19201600855611548565b81549060031b9083821b9160018060a01b03901b19161790557f9656fa3ee9769c0d6de8ae1f79cca49ee9cb74a9c3db804cb9544b4e5b63a4f0604060055460065482519182526020820152a280f35b634e487b7160e01b83526041600452602483fd5b8161120f916115d6565b38611099565b60405162461bcd60e51b815260206004820152600e60248201526d414c52454144595f41435449564560901b6044820152606490fd5b60405162461bcd60e51b815260206004820152600a6024820152692d22a927afaa27a5a2a760b11b6044820152606490fd5b60405162461bcd60e51b815260206004820152600c60248201526b15539055551213d49256915160a21b6044820152606490fd5b506001546001600160a01b03163314611040565b50346101bc57806003193601126101bc5760206040516b0295be96e6406697200000008152f35b50346101bc5760203660031901126101bc5760406101209161130c61152d565b81610100845161131b816115a3565b82815282602082015282868201528260608201528260808201528260a08201528260c08201528260e0820152015260018060a01b03168152600760205220604051611365816115a3565b81549160ff831615159283835260ff602084019160081c16151581526001820154604084019081526002830154606085019081526003840154906080860191825260048501549260a0870193845260058601549460c0880195865261010060068801549760e08a01988952600760018060a01b0391015416980197885260405198895251151560208901525160408801525160608701525160808601525160a08501525160c08401525160e083015260018060a01b03905116610100820152f35b9050346115295760403660031901126115295761099e610980604061144961152d565b6001600160a01b031685526007602052909320602435939061146a846115a3565b6114e6815460ff80821615159182885260081c16158015602088015260018401546040880152600284015460608801526003840154966080810197885261010060048601549560a08301968752600581015460c0840152600681015460e0840152600760018060a01b0391015416910152816109a257506115f8565b61097a6115076127106114ff61ffff6004541689611637565b048097611680565b9461152261151987835186519061178a565b9687925161168d565b9251611680565b5080fd5b600435906001600160a01b038216820361154357565b600080fd5b60085481101561156357600860005260206000200190600090565b634e487b7160e01b600052603260045260246000fd5b6060906003190112611543576004356001600160a01b038116810361154357906024359060443590565b610120810190811067ffffffffffffffff8211176115c057604052565b634e487b7160e01b600052604160045260246000fd5b90601f8019910116810190811067ffffffffffffffff8211176115c057604052565b156115ff57565b60405162461bcd60e51b815260206004820152601060248201526f544f4b454e5f4e4f545f41435449564560801b6044820152606490fd5b8181029291811591840414171561164a57565b634e487b7160e01b600052601160045260246000fd5b811561166a570490565b634e487b7160e01b600052601260045260246000fd5b9190820391821161164a57565b9190820180921161164a57565b156116a157565b60405162461bcd60e51b815260206004820152600a60248201526916915493d7d25394155560b21b6044820152606490fd5b156116da57565b60405162461bcd60e51b815260206004820152601160248201527014d31254141051d157d15610d151511151607a1b6044820152606490fd5b60243561ffff811681036115435790565b60443561ffff811681036115435790565b60a4356001600160a01b03811681036115435790565b1561175257565b60405162461bcd60e51b815260206004820152601060248201526f494e56414c49445f524553455256455360801b6044820152606490fd5b90826117b96117c5946117bf936117a282151561169a565b851515806117c8575b6117b49061174b565b611637565b9261168d565b90611660565b90565b508015156117ab565b90811580158061180c575b6117e59061174b565b670de0b6b3a76400008302928304670de0b6b3a764000014171561164a576117c591611660565b508115156117dc565b60ff60015460a01c1661182457565b63d93c066560e01b60005260046000fd5b6001546001600160a01b0316330361184957565b63118cdaa760e01b6000523360045260246000fd5b60405163a9059cbb60e01b60208201526001600160a01b0392909216602483015260448083019390935291815261189f9161189a6064836115d6565b6126fb565b565b6118ac83151561169a565b80151580611915575b6118be9061174b565b818310156118d757826117b96117c5946117bf93611637565b60405162461bcd60e51b8152602060048201526016602482015275494e53554646494349454e545f4c495155494449545960501b6044820152606490fd5b508115156118b5565b60026000541461192f576002600055565b633ee5aeb560e01b60005260046000fd5b90816020910312611543575180151581036115435790565b6001600160a01b031660008181526007602052604081208054909190600881901c60ff166126f5576101009061ff001916178255600682014281558360008051602061276383398151915260c060405160808152601560808201527439ba30b93a23b930b23ab0ba34b7b71d3132b3b4b760591b60a0820152856020820152856040820152856060820152a2833b156115295760405162d5441b60e81b8152828160048183895af190816126e1575b50611a6d57908060c0926000805160206127638339815191529461ff0019815416905555604051906080825260166080830152751cdd185c9d11dc98591d585d1a5bdb8e99985a5b195960521b60a08301528060208301528060408301526060820152a2565b8360008051602061276383398151915260c0604051608081526014608082015273737461727447726164756174696f6e3a646f6e6560601b60a0820152856020820152856040820152856060820152a28360008051602061276383398151915260c060405160808152600a60808201526936b4b73a1d3132b3b4b760b11b60a08201528560208201526aa56fa5b99019a5c80000006040820152856060820152a2833b15611529576040516340c10f1960e01b81523060048201526aa56fa5b99019a5c80000006024820152828082604481838a5af191826126cc575b5050611bb157908060c0926000805160206127638339815191529461ff00198154169055556040519060808252600b60808301526a1b5a5b9d0e99985a5b195960aa1b60a08301528060208301526aa56fa5b99019a5c800000060408301526060820152a2565b8360008051602061276383398151915260c06040516080815260096080820152686d696e743a646f6e6560b81b60a08201528560208201526aa56fa5b99019a5c80000006040820152856060820152a28360008051602061276383398151915260c060405160808152601360808201527236b4b3b930ba34b7b72fb332b29d3132b3b4b760691b60a0820152670de0b6b3a76400006020820152856040820152856060820152a26040516370a0823160e01b81523060048201527f00000000000000000000000000000000000000000000000000000000000000006001600160a01b0381169291602081602481875afa80156126c1578590612687575b670de0b6b3a7640000119050612615576004546040805163a9059cbb60e01b602082015291901c6001600160a01b03166024820152670de0b6b3a76400006044808301919091528152611d069161189a6064836115d6565b8460008051602061276383398151915260c06040516080815260126080820152711b5a59dc985d1a5bdb97d999594e9c185a5960721b60a0820152670de0b6b3a76400006020820152866040820152866060820152a25b6040516370a0823160e01b815230600482015292602084602481865afa9384156126085781946125d4575b506040516370a0823160e01b8152306004820152916020836024818a5afa9283156104345782936125a0575b508660008051602061276383398151915260c060405160808152600d60808201526c1cd959590e98dbdb5c1d5d1959609a1b60a0820152886020820152866040820152856060820152a2600254919384926001600160a01b031680151580612597575b8061258e575b611ff3575b50508660008051602061276383398151915260c06040519660808852601860808901527f636f6d706c65746547726164756174696f6e3a626567696e000000000000000060a089015288602089015286604089015260018060a01b031696876060820152a2863b15611529576040516343e63ea560e11b815260048101859052828082602481838d5af19182611fda575b5050611f21579060c0949392916000805160206127638339815191529661ff00198154169055556040519260808452601960808501527f636f6d706c65746547726164756174696f6e3a6661696c65640000000000000060a0850152602084015260408301526060820152a2565b505060809260077f5ec1e9daf7affe04984801e0d07de6448f00139d72977b7c948bf698bd353f76958760008051602061276383398151915260c060405189815260178a8201527f636f6d706c65746547726164756174696f6e3a646f6e6500000000000000000060a0820152866020820152876040820152886060820152a201836bffffffffffffffffffffffff60a01b82541617905560405192835260208301526040820152670de0b6b3a76400006060820152a2565b81611fe4916115d6565b611fef578238611eb3565b8280fd5b8860008051602061276383398151915260c060405160808152600d60808201526c30b8383937bb329d3132b3b4b760991b60a08201528a6020820152886040820152876060820152a26001906040519063095ea7b360e01b8252600482015284602482015260208160448188875af19081612571575b5061256a57508280808a60008051602061276383398151915260c060405160808152601860808201527f617070726f76653a6f6b625f72657365745f6661696c6564000000000000000060a08201528c60208201528a6040820152896060820152a25b6124af575b806123ed575b612327575b156122ca57602083918960008051602061276383398151915260c060405160808152600c60808201526b617070726f76653a646f6e6560a01b60a08201528b86820152896040820152866060820152a28960008051602061276383398151915260c060405160808152601660808201527534bd3ab6b49d31b932b0ba32a837b7b61d3132b3b4b760511b60a08201528b86820152896040820152866060820152a2608460018060a01b036002541691604051948593849263431102bf60e01b845260048401528d60248401528b60448401528960648401525af1839181612286575b5061222557508660008051602061276383398151915260c060405160808152601760808201527f697a756d693a637265617465506f6f6c3a6661696c656400000000000000000060a0820152886020820152866040820152856060820152a25b3880611e22565b93508660008051602061276383398151915260c08660405190608082526015608083015274697a756d693a637265617465506f6f6c3a646f6e6560581b60a083015289602083015287604083015260018060a01b03166060820152a261221e565b9091506020813d6020116122c2575b816122a2602093836115d6565b81010312610a3557516001600160a01b0381168103610a355790386121be565b3d9150612295565b5060c0949350908092916000805160206127638339815191529661ff00198154169055556040519260808452600f60808501526e185c1c1c9bdd994e98589bdc9d1959608a1b60a0850152602084015260408301526060820152a2565b60025460405163095ea7b360e01b81526001600160a01b03909116600482015260248101869052602081604481888e5af190816123c0575b506123bb5750828860008051602061276383398151915260c0604051608081526014608082015273185c1c1c9bdd994e9d1bdad95b97d9985a5b195960621b60a08201528a6020820152886040820152876060820152a26120dc565b6120dc565b6123e19060203d6020116123e6575b6123d981836115d6565b810190611940565b61235f565b503d6123cf565b5060025460405163095ea7b360e01b81526001600160a01b03909116600482015260248101859052602081604481888e5af19081612492575b5061248c575082808960008051602061276383398151915260c060405160808152601a60808201527f617070726f76653a746f6b656e5f72657365745f6661696c656400000000000060a08201528b6020820152896040820152886060820152a26120d7565b806120d7565b6124aa9060203d6020116123e6576123d981836115d6565b612426565b5060025460405163095ea7b360e01b81526001600160a01b0390911660048201526024810188905260208160448188875af1908161254d575b5061254657508280808a60008051602061276383398151915260c0604051608081526012608082015271185c1c1c9bdd994e9bdad897d9985a5b195960721b60a08201528c60208201528a6040820152896060820152a25b506120d1565b8080612540565b6125659060203d6020116123e6576123d981836115d6565b6124e8565b80806120cc565b6125899060203d6020116123e6576123d981836115d6565b612069565b50841515611e1d565b50861515611e17565b9092506020813d6020116125cc575b816125bc602093836115d6565b8101031261154357519138611db4565b3d91506125af565b9093506020813d602011612600575b816125f0602093836115d6565b8101031261154357519238611d88565b3d91506125e3565b50604051903d90823e3d90fd5b508460008051602061276383398151915260e060405160808152602260808201527f6d6967726174696f6e5f6665653a696e73756666696369656e745f62616c616e60a082015261636560f01b60c0820152670de0b6b3a76400006020820152866040820152866060820152a2611d5d565b506020813d6020116126b9575b816126a1602093836115d6565b8101031261154357670de0b6b3a76400009051611cae565b3d9150612694565b6040513d87823e3d90fd5b816126d6916115d6565b611fef578238611b4a565b836126ee919492946115d6565b9138611a07565b50505050565b906000602091828151910182855af115612756576000513d61274d57506001600160a01b0381163b155b61272c5750565b635274afe760e01b60009081526001600160a01b0391909116600452602490fd5b60011415612725565b6040513d6000823e3d90fdfedc87d61384cd71d6e205f47fbd1348c935cbcdde92b397021049321deef12217a264697066735822122059dcd846cb7a11b160b61ccfc9a1ef537c38381f67663858758c133bb4200eaa64736f6c634300081c0033",
  "linkReferences": {},
  "deployedLinkReferences": {}
}