{
  "_format": "hh-sol-artifact-1",
  "contractName": "LiquidityRouterV1",
  "sourceName": "contracts/LiquidityRouterV1.sol",
  "abi": [
    {
      "inputs": [
        {
          "internalType": "address",
          "name": "_positionManager",
          "type": "address"
        },
        {
          "internalType": "address",
          "name": "_token1",
          "type": "address"
        }
      ],
      "stateMutability": "nonpayable",
      "type": "constructor"
    },
    {
      "inputs": [
        {
          "internalType": "address",
          "name": "owner",
          "type": "address"
        }
      ],
      "name": "OwnableInvalidOwner",
      "type": "error"
    },
    {
      "inputs": [
        {
          "internalType": "address",
          "name": "account",
          "type": "address"
        }
      ],
      "name": "OwnableUnauthorizedAccount",
      "type": "error"
    },
    {
      "anonymous": false,
      "inputs": [
        {
          "indexed": true,
          "internalType": "uint256",
          "name": "tokenId",
          "type": "uint256"
        },
        {
          "indexed": false,
          "internalType": "uint128",
          "name": "liquidity",
          "type": "uint128"
        },
        {
          "indexed": false,
          "internalType": "uint256",
          "name": "amount0",
          "type": "uint256"
        },
        {
          "indexed": false,
          "internalType": "uint256",
          "name": "amount1",
          "type": "uint256"
        }
      ],
      "name": "LiquidityAdded",
      "type": "event"
    },
    {
      "anonymous": false,
      "inputs": [
        {
          "indexed": true,
          "internalType": "address",
          "name": "previousOwner",
          "type": "address"
        },
        {
          "indexed": true,
          "internalType": "address",
          "name": "newOwner",
          "type": "address"
        }
      ],
      "name": "OwnershipTransferred",
      "type": "event"
    },
    {
      "anonymous": false,
      "inputs": [
        {
          "indexed": true,
          "internalType": "address",
          "name": "oldManager",
          "type": "address"
        },
        {
          "indexed": true,
          "internalType": "address",
          "name": "newManager",
          "type": "address"
        }
      ],
      "name": "PositionManagerUpdated",
      "type": "event"
    },
    {
      "inputs": [
        {
          "internalType": "address",
          "name": "_token0",
          "type": "address"
        },
        {
          "internalType": "uint24",
          "name": "_fee",
          "type": "uint24"
        },
        {
          "internalType": "int24",
          "name": "_tickLower",
          "type": "int24"
        },
        {
          "internalType": "int24",
          "name": "_tickUpper",
          "type": "int24"
        }
      ],
      "name": "createPoolAndAddLiquidity",
      "outputs": [],
      "stateMutability": "nonpayable",
      "type": "function"
    },
    {
      "inputs": [],
      "name": "owner",
      "outputs": [
        {
          "internalType": "address",
          "name": "",
          "type": "address"
        }
      ],
      "stateMutability": "view",
      "type": "function"
    },
    {
      "inputs": [],
      "name": "positionManager",
      "outputs": [
        {
          "internalType": "contract IPositionManager",
          "name": "",
          "type": "address"
        }
      ],
      "stateMutability": "view",
      "type": "function"
    },
    {
      "inputs": [],
      "name": "renounceOwnership",
      "outputs": [],
      "stateMutability": "nonpayable",
      "type": "function"
    },
    {
      "inputs": [],
      "name": "token1",
      "outputs": [
        {
          "internalType": "address",
          "name": "",
          "type": "address"
        }
      ],
      "stateMutability": "view",
      "type": "function"
    },
    {
      "inputs": [
        {
          "internalType": "address",
          "name": "newOwner",
          "type": "address"
        }
      ],
      "name": "transferOwnership",
      "outputs": [],
      "stateMutability": "nonpayable",
      "type": "function"
    },
    {
      "inputs": [
        {
          "internalType": "address",
          "name": "_newPositionManager",
          "type": "address"
        }
      ],
      "name": "updatePositionManager",
      "outputs": [],
      "stateMutability": "nonpayable",
      "type": "function"
    },
    {
      "inputs": [
        {
          "internalType": "address",
          "name": "_tokenAddress",
          "type": "address"
        }
      ],
      "name": "withdrawToken",
      "outputs": [],
      "stateMutability": "nonpayable",
      "type": "function"
    }
  ],
  "bytecode": "0x60a03461019557601f610cd938819003918201601f19168301916001600160401b0383118484101761019a57808492604094855283398101031261019557610052602061004b836101b0565b92016101b0565b90331561017f5760008054336001600160a01b0319821681178355604051939290916001600160a01b0316907f8be0079c531659141344cd1fd0a4f28419497f9722a3daafe3b4186f6b6457e09080a36001600160a01b031690811561013d57506001600160a01b038216156100f857600180546001600160a01b031916919091179055608052604051610b1490816101c5823960805181818161011801526101e60152f35b60405162461bcd60e51b815260206004820152601660248201527f526f757465723a20496e76616c696420746f6b656e31000000000000000000006044820152606490fd5b62461bcd60e51b815260206004820181905260248201527f526f757465723a20496e76616c696420706f736974696f6e206d616e616765726044820152606490fd5b631e4fbdf760e01b600052600060045260246000fd5b600080fd5b634e487b7160e01b600052604160045260246000fd5b51906001600160a01b03821682036101955756fe6080604052600436101561001257600080fd5b60003560e01c80636881d8cb14610961578063715018a614610908578063791b98bc146108df57806389476069146107c75780638da5cb5b1461079e578063cd75e11014610147578063d21220a7146101025763f2fde38b1461007457600080fd5b346100fd5760203660031901126100fd5761008d610a65565b610095610ab5565b6001600160a01b031680156100e757600080546001600160a01b03198116831782556001600160a01b0316907f8be0079c531659141344cd1fd0a4f28419497f9722a3daafe3b4186f6b6457e09080a3005b631e4fbdf760e01b600052600060045260246000fd5b600080fd5b346100fd5760003660031901126100fd576040517f00000000000000000000000000000000000000000000000000000000000000006001600160a01b03168152602090f35b346100fd5760803660031901126100fd57610160610a65565b6024359062ffffff82168092036100fd57604435918260020b8093036100fd57606435918260020b8093036100fd57610197610ab5565b6040516370a0823160e01b81523060048201526001600160a01b03919091169290602081602481875afa9081156104ed5760009161076c575b506040516370a0823160e01b81523060048201527f00000000000000000000000000000000000000000000000000000000000000006001600160a01b03169590926020846024818a5afa9384156104ed57600094610738575b5082156106f35783156106ae5760015460405163095ea7b360e01b81526001600160a01b0390911660048201526024810184905260208160448160008b5af180156104ed57610691575b5060015460405163095ea7b360e01b81526001600160a01b0390911660048201526024810185905260208160448160008c5af180156104ed57610674575b5060018060a01b0360005416603c42019182421161065e5760405194610160860186811067ffffffffffffffff821117610648576040908152898752602087018b8152878201998a52606088019687526080880193845260a0880192835260c08801988952600060e089018181526101008a019182526101208a019687526101408a019788526001549351634418b22b60e11b815299516001600160a01b0390811660048c01529251831660248b01529a5162ffffff1660448a01529651600290810b60648a0152935190930b6084880152905160a4870152955160c4860152955160e4850152915161010484015290518416610124830152516101448201529182918291165a92600061016492608095f19081156104ed576000918291839084926105ca575b50916060917f349a5134d5729502d70a88264720af4ccfc9b5dbf3866f51a0dc4e11401951ac936001600160801b036040519316835260208301526040820152a26040516370a0823160e01b815230600482015290602082602481845afa9182156104ed57600092610596575b5081610530575b50506040516370a0823160e01b815230600482015290602082602481845afa9182156104ed576000926104f9575b508161048257005b6000805460405163a9059cbb60e01b81526001600160a01b039091166004820152602481019390935260209183916044918391905af180156104ed576104c5575b005b6104c39060203d6020116104e6575b6104de8183610a7b565b810190610a9d565b503d6104d4565b6040513d6000823e3d90fd5b90916020823d602011610528575b8161051460209383610a7b565b81010312610525575051908261047a565b80fd5b3d9150610507565b6000805460405163a9059cbb60e01b81526001600160a01b039091166004820152602481019390935260209183916044918391905af180156104ed57610577575b8061044c565b61058f9060203d6020116104e6576104de8183610a7b565b5081610571565b90916020823d6020116105c2575b816105b160209383610a7b565b810103126105255750519083610445565b3d91506105a4565b925050506080813d608011610640575b816105e760809383610a7b565b8101031261063c5780516020820151926001600160801b0384168403610525575060408201516060909201519092917f349a5134d5729502d70a88264720af4ccfc9b5dbf3866f51a0dc4e11401951ac6103d8565b5080fd5b3d91506105da565b634e487b7160e01b600052604160045260246000fd5b634e487b7160e01b600052601160045260246000fd5b61068c9060203d6020116104e6576104de8183610a7b565b6102b1565b6106a99060203d6020116104e6576104de8183610a7b565b610273565b60405162461bcd60e51b815260206004820152601b60248201527f526f757465723a205a65726f20746f6b656e312062616c616e636500000000006044820152606490fd5b60405162461bcd60e51b815260206004820152601b60248201527f526f757465723a205a65726f20746f6b656e302062616c616e636500000000006044820152606490fd5b90936020823d602011610764575b8161075360209383610a7b565b810103126105255750519287610229565b3d9150610746565b906020823d602011610796575b8161078660209383610a7b565b81010312610525575051856101d0565b3d9150610779565b346100fd5760003660031901126100fd576000546040516001600160a01b039091168152602090f35b346100fd5760203660031901126100fd576107e0610a65565b6107e8610ab5565b6040516370a0823160e01b8152306004820152906001600160a01b0316602082602481845afa9182156104ed576000926108ab575b508115610866576000805460405163a9059cbb60e01b81526001600160a01b039091166004820152602481019390935260209183916044918391905af180156104ed576104c557005b60405162461bcd60e51b815260206004820152601d60248201527f526f757465723a204e6f20746f6b656e7320746f2077697468647261770000006044820152606490fd5b90916020823d6020116108d7575b816108c660209383610a7b565b81010312610525575051908261081d565b3d91506108b9565b346100fd5760003660031901126100fd576001546040516001600160a01b039091168152602090f35b346100fd5760003660031901126100fd57610921610ab5565b600080546001600160a01b0319811682556001600160a01b03167f8be0079c531659141344cd1fd0a4f28419497f9722a3daafe3b4186f6b6457e08280a3005b346100fd5760203660031901126100fd5761097a610a65565b610982610ab5565b6001600160a01b03168015610a21576001546001600160a01b038116908282146109dc576001600160a01b03191682176001557f9ee681927833c2398c73d0f5b2a218383929087bada1b839781887af24e6bb02600080a3005b60405162461bcd60e51b815260206004820152601d60248201527f526f757465723a2053616d6520706f736974696f6e206d616e616765720000006044820152606490fd5b606460405162461bcd60e51b815260206004820152602060248201527f526f757465723a20496e76616c696420706f736974696f6e206d616e616765726044820152fd5b600435906001600160a01b03821682036100fd57565b90601f8019910116810190811067ffffffffffffffff82111761064857604052565b908160209103126100fd575180151581036100fd5790565b6000546001600160a01b03163303610ac957565b63118cdaa760e01b6000523360045260246000fdfea2646970667358221220fb0283ddfae22eba35ae42bce4897b58ae1257793cc1b7f111bb4eb0a5a085ae64736f6c634300081c0033",
  "linkReferences": {},
  "deployedLinkReferences": {}
}