{
  "_format": "hh-sol-artifact-1",
  "contractName": "MockERC20",
  "sourceName": "contracts/MockERC20.sol",
  "abi": [
    {
      "inputs": [
        {
          "internalType": "string",
          "name": "name",
          "type": "string"
        },
        {
          "internalType": "string",
          "name": "symbol",
          "type": "string"
        },
        {
          "internalType": "uint256",
          "name": "initialSupply",
          "type": "uint256"
        }
      ],
      "stateMutability": "nonpayable",
      "type": "constructor"
    },
    {
      "inputs": [
        {
          "internalType": "address",
          "name": "spender",
          "type": "address"
        },
        {
          "internalType": "uint256",
          "name": "allowance",
          "type": "uint256"
        },
        {
          "internalType": "uint256",
          "name": "needed",
          "type": "uint256"
        }
      ],
      "name": "ERC20InsufficientAllowance",
      "type": "error"
    },
    {
      "inputs": [
        {
          "internalType": "address",
          "name": "sender",
          "type": "address"
        },
        {
          "internalType": "uint256",
          "name": "balance",
          "type": "uint256"
        },
        {
          "internalType": "uint256",
          "name": "needed",
          "type": "uint256"
        }
      ],
      "name": "ERC20InsufficientBalance",
      "type": "error"
    },
    {
      "inputs": [
        {
          "internalType": "address",
          "name": "approver",
          "type": "address"
        }
      ],
      "name": "ERC20InvalidApprover",
      "type": "error"
    },
    {
      "inputs": [
        {
          "internalType": "address",
          "name": "receiver",
          "type": "address"
        }
      ],
      "name": "ERC20InvalidReceiver",
      "type": "error"
    },
    {
      "inputs": [
        {
          "internalType": "address",
          "name": "sender",
          "type": "address"
        }
      ],
      "name": "ERC20InvalidSender",
      "type": "error"
    },
    {
      "inputs": [
        {
          "internalType": "address",
          "name": "spender",
          "type": "address"
        }
      ],
      "name": "ERC20InvalidSpender",
      "type": "error"
    },
    {
      "anonymous": false,
      "inputs": [
        {
          "indexed": true,
          "internalType": "address",
          "name": "owner",
          "type": "address"
        },
        {
          "indexed": true,
          "internalType": "address",
          "name": "spender",
          "type": "address"
        },
        {
          "indexed": false,
          "internalType": "uint256",
          "name": "value",
          "type": "uint256"
        }
      ],
      "name": "Approval",
      "type": "event"
    },
    {
      "anonymous": false,
      "inputs": [
        {
          "indexed": true,
          "internalType": "address",
          "name": "from",
          "type": "address"
        },
        {
          "indexed": true,
          "internalType": "address",
          "name": "to",
          "type": "address"
        },
        {
          "indexed": false,
          "internalType": "uint256",
          "name": "value",
          "type": "uint256"
        }
      ],
      "name": "Transfer",
      "type": "event"
    },
    {
      "inputs": [
        {
          "internalType": "address",
          "name": "owner",
          "type": "address"
        },
        {
          "internalType": "address",
          "name": "spender",
          "type": "address"
        }
      ],
      "name": "allowance",
      "outputs": [
        {
          "internalType": "uint256",
          "name": "",
          "type": "uint256"
        }
      ],
      "stateMutability": "view",
      "type": "function"
    },
    {
      "inputs": [
        {
          "internalType": "address",
          "name": "spender",
          "type": "address"
        },
        {
          "internalType": "uint256",
          "name": "value",
          "type": "uint256"
        }
      ],
      "name": "approve",
      "outputs": [
        {
          "internalType": "bool",
          "name": "",
          "type": "bool"
        }
      ],
      "stateMutability": "nonpayable",
      "type": "function"
    },
    {
      "inputs": [
        {
          "internalType": "address",
          "name": "account",
          "type": "address"
        }
      ],
      "name": "balanceOf",
      "outputs": [
        {
          "internalType": "uint256",
          "name": "",
          "type": "uint256"
        }
      ],
      "stateMutability": "view",
      "type": "function"
    },
    {
      "inputs": [
        {
          "internalType": "uint256",
          "name": "amount",
          "type": "uint256"
        }
      ],
      "name": "burn",
      "outputs": [],
      "stateMutability": "nonpayable",
      "type": "function"
    },
    {
      "inputs": [
        {
          "internalType": "address",
          "name": "account",
          "type": "address"
        },
        {
          "internalType": "uint256",
          "name": "amount",
          "type": "uint256"
        }
      ],
      "name": "burnFrom",
      "outputs": [],
      "stateMutability": "nonpayable",
      "type": "function"
    },
    {
      "inputs": [],
      "name": "decimals",
      "outputs": [
        {
          "internalType": "uint8",
          "name": "",
          "type": "uint8"
        }
      ],
      "stateMutability": "view",
      "type": "function"
    },
    {
      "inputs": [
        {
          "internalType": "address",
          "name": "to",
          "type": "address"
        },
        {
          "internalType": "uint256",
          "name": "amount",
          "type": "uint256"
        }
      ],
      "name": "mint",
      "outputs": [],
      "stateMutability": "nonpayable",
      "type": "function"
    },
    {
      "inputs": [],
      "name": "name",
      "outputs": [
        {
          "internalType": "string",
          "name": "",
          "type": "string"
        }
      ],
      "stateMutability": "view",
      "type": "function"
    },
    {
      "inputs": [],
      "name": "symbol",
      "outputs": [
        {
          "internalType": "string",
          "name": "",
          "type": "string"
        }
      ],
      "stateMutability": "view",
      "type": "function"
    },
    {
      "inputs": [],
      "name": "totalSupply",
      "outputs": [
        {
          "internalType": "uint256",
          "name": "",
          "type": "uint256"
        }
      ],
      "stateMutability": "view",
      "type": "function"
    },
    {
      "inputs": [
        {
          "internalType": "address",
          "name": "to",
          "type": "address"
        },
        {
          "internalType": "uint256",
          "name": "value",
          "type": "uint256"
        }
      ],
      "name": "transfer",
      "outputs": [
        {
          "internalType": "bool",
          "name": "",
          "type": "bool"
        }
      ],
      "stateMutability": "nonpayable",
      "type": "function"
    },
    {
      "inputs": [
        {
          "internalType": "address",
          "name": "from",
          "type": "address"
        },
        {
          "internalType": "address",
          "name": "to",
          "type": "address"
        },
        {
          "internalType": "uint256",
          "name": "value",
          "type": "uint256"
        }
      ],
      "name": "transferFrom",
      "outputs": [
        {
          "internalType": "bool",
          "name": "",
          "type": "bool"
        }
      ],
      "stateMutability": "nonpayable",
      "type": "function"
    }
  ],
  "bytecode": "0x6080604052346103bc57610c2780380380610019816103c1565b9283398101906060818303126103bc5780516001600160401b0381116103bc57826100459183016103e6565b60208201519092906001600160401b0381116103bc576040916100699184016103e6565b91015182516001600160401b0381116102c557600354600181811c911680156103b2575b60208210146102a557601f811161034d575b506020601f82116001146102e657819293946000926102db575b50508160011b916000199060031b1c1916176003555b81516001600160401b0381116102c557600454600181811c911680156102bb575b60208210146102a557601f8111610240575b50602092601f82116001146101db57928192936000926101d0575b50508160011b916000199060031b1c1916176004555b601260ff19600554161760055533156101ba576002548181018091116101a457600255600033815280602052604081208281540190556040519182527fddf252ad1be2c89b69c2b068fc378daa952ba7f163c4a11628f55a4df523b3ef60203393a36040516107d590816104528239f35b634e487b7160e01b600052601160045260246000fd5b63ec442f0560e01b600052600060045260246000fd5b01519050388061011d565b601f198216936004600052806000209160005b868110610228575083600195961061020f575b505050811b01600455610133565b015160001960f88460031b161c19169055388080610201565b919260206001819286850151815501940192016101ee565b60046000527f8a35acfbc15ff81a39ae7d344fd709f28e8600b4aa8c65c6b64bfe7fe36bd19b601f830160051c8101916020841061029b575b601f0160051c01905b81811061028f5750610102565b60008155600101610282565b9091508190610279565b634e487b7160e01b600052602260045260246000fd5b90607f16906100f0565b634e487b7160e01b600052604160045260246000fd5b0151905038806100b9565b601f198216906003600052806000209160005b8181106103355750958360019596971061031c575b505050811b016003556100cf565b015160001960f88460031b161c1916905538808061030e565b9192602060018192868b0151815501940192016102f9565b60036000527fc2575a0e9e593c00f959f8c92f12db2869c3395a3b0502d05e2516446f71f85b601f830160051c810191602084106103a8575b601f0160051c01905b81811061039c575061009f565b6000815560010161038f565b9091508190610386565b90607f169061008d565b600080fd5b6040519190601f01601f191682016001600160401b038111838210176102c557604052565b81601f820112156103bc578051906001600160401b0382116102c557610415601f8301601f19166020016103c1565b92828452602083830101116103bc5760005b82811061043c57505060206000918301015290565b8060208092840101518282870101520161042756fe608080604052600436101561001357600080fd5b60003560e01c90816306fdde031461052757508063095ea7b3146104a157806318160ddd1461048357806323b872dd14610396578063313ce5671461037557806340c10f19146102c957806342966c68146102ac57806370a082311461027257806379cc67901461024b57806395d89b411461012a578063a9059cbb146100f95763dd62ed3e146100a357600080fd5b346100f45760403660031901126100f4576100bc610643565b6100c4610659565b6001600160a01b039182166000908152600160209081526040808320949093168252928352819020549051908152f35b600080fd5b346100f45760403660031901126100f45761011f610115610643565b602435903361066f565b602060405160018152f35b346100f45760003660031901126100f45760405160006004548060011c90600181168015610241575b60208310811461022d5782855290811561021157506001146101ba575b50819003601f01601f191681019067ffffffffffffffff8211818310176101a4576101a0829182604052826105fa565b0390f35b634e487b7160e01b600052604160045260246000fd5b905060046000527f8a35acfbc15ff81a39ae7d344fd709f28e8600b4aa8c65c6b64bfe7fe36bd19b6000905b8282106101fb57506020915082010182610170565b60018160209254838588010152019101906101e6565b90506020925060ff191682840152151560051b82010182610170565b634e487b7160e01b84526022600452602484fd5b91607f1691610153565b346100f45760403660031901126100f457610270610267610643565b6024359061071e565b005b346100f45760203660031901126100f4576001600160a01b03610293610643565b1660005260006020526020604060002054604051908152f35b346100f45760203660031901126100f4576102706004353361071e565b346100f45760403660031901126100f4576102e2610643565b602435906001600160a01b0316801561035f5760025491808301809311610349576020926002557fddf252ad1be2c89b69c2b068fc378daa952ba7f163c4a11628f55a4df523b3ef600093849284845283825260408420818154019055604051908152a380f35b634e487b7160e01b600052601160045260246000fd5b63ec442f0560e01b600052600060045260246000fd5b346100f45760003660031901126100f457602060ff60055416604051908152f35b346100f45760603660031901126100f4576103af610643565b6103b7610659565b6001600160a01b03821660008181526001602090815260408083203384529091529020549092604435929160001981106103f7575b5061011f935061066f565b83811061046657841561045057331561043a5761011f946000526001602052604060002060018060a01b03331660005260205283604060002091039055846103ec565b634a1406b160e11b600052600060045260246000fd5b63e602df0560e01b600052600060045260246000fd5b8390637dc7a0d960e11b6000523360045260245260445260646000fd5b346100f45760003660031901126100f4576020600254604051908152f35b346100f45760403660031901126100f4576104ba610643565b602435903315610450576001600160a01b031690811561043a57336000526001602052604060002082600052602052806040600020556040519081527f8c5be1e5ebec7d5bd14f71427d1e84f3dd0314c0f7b2291e5b200ac8c7c3b92560203392a3602060405160018152f35b346100f45760003660031901126100f45760006003548060011c906001811680156105f0575b60208310811461022d5782855290811561021157506001146105995750819003601f01601f191681019067ffffffffffffffff8211818310176101a4576101a0829182604052826105fa565b905060036000527fc2575a0e9e593c00f959f8c92f12db2869c3395a3b0502d05e2516446f71f85b6000905b8282106105da57506020915082010182610170565b60018160209254838588010152019101906105c5565b91607f169161054d565b91909160208152825180602083015260005b81811061062d575060409293506000838284010152601f8019910116010190565b806020809287010151604082860101520161060c565b600435906001600160a01b03821682036100f457565b602435906001600160a01b03821682036100f457565b6001600160a01b0316908115610708576001600160a01b031691821561035f5760008281528060205260408120548281106106ee5791604082827fddf252ad1be2c89b69c2b068fc378daa952ba7f163c4a11628f55a4df523b3ef958760209652828652038282205586815280845220818154019055604051908152a3565b916064928463391434e360e21b8452600452602452604452fd5b634b637e8f60e11b600052600060045260246000fd5b6001600160a01b031680156107085760009181835282602052604083205481811061078657817fddf252ad1be2c89b69c2b068fc378daa952ba7f163c4a11628f55a4df523b3ef926020928587528684520360408620558060025403600255604051908152a3565b6064939263391434e360e21b8452600452602452604452fdfea26469706673582212207aa7791e632c77fba9febb974fa639250a8324a455845dd3aa52bd481133306f64736f6c634300081c0033",
  "linkReferences": {},
  "deployedLinkReferences": {}
}