{
  "_format": "hh-sol-artifact-1",
  "contractName": "TokenFactoryV1",
  "sourceName": "contracts/TokenFactoryV1.sol",
  "abi": [
    {
      "inputs": [
        {
          "internalType": "address",
          "name": "_bondingCurve",
          "type": "address"
        },
        {
          "internalType": "address",
          "name": "_okbToken",
          "type": "address"
        },
        {
          "internalType": "address",
          "name": "_feeRecipient",
          "type": "address"
        }
      ],
      "stateMutability": "nonpayable",
      "type": "constructor"
    },
    {
      "inputs": [
        {
          "internalType": "address",
          "name": "owner",
          "type": "address"
        }
      ],
      "name": "OwnableInvalidOwner",
      "type": "error"
    },
    {
      "inputs": [
        {
          "internalType": "address",
          "name": "account",
          "type": "address"
        }
      ],
      "name": "OwnableUnauthorizedAccount",
      "type": "error"
    },
    {
      "inputs": [],
      "name": "ReentrancyGuardReentrantCall",
      "type": "error"
    },
    {
      "inputs": [
        {
          "internalType": "address",
          "name": "token",
          "type": "address"
        }
      ],
      "name": "SafeERC20FailedOperation",
      "type": "error"
    },
    {
      "anonymous": false,
      "inputs": [
        {
          "components": [
            {
              "internalType": "address",
              "name": "okbToken",
              "type": "address"
            },
            {
              "internalType": "address",
              "name": "feeRecipient",
              "type": "address"
            },
            {
              "internalType": "address",
              "name": "bondingCurve",
              "type": "address"
            }
          ],
          "indexed": false,
          "internalType": "struct TokenFactoryV1.FactoryConfig",
          "name": "newConfig",
          "type": "tuple"
        }
      ],
      "name": "ConfigUpdated",
      "type": "event"
    },
    {
      "anonymous": false,
      "inputs": [
        {
          "indexed": false,
          "internalType": "address",
          "name": "recipient",
          "type": "address"
        },
        {
          "indexed": false,
          "internalType": "uint256",
          "name": "amount",
          "type": "uint256"
        }
      ],
      "name": "FeesWithdrawn",
      "type": "event"
    },
    {
      "anonymous": false,
      "inputs": [
        {
          "indexed": true,
          "internalType": "address",
          "name": "previousOwner",
          "type": "address"
        },
        {
          "indexed": true,
          "internalType": "address",
          "name": "newOwner",
          "type": "address"
        }
      ],
      "name": "OwnershipTransferred",
      "type": "event"
    },
    {
      "anonymous": false,
      "inputs": [
        {
          "indexed": true,
          "internalType": "address",
          "name": "token",
          "type": "address"
        },
        {
          "indexed": true,
          "internalType": "address",
          "name": "creator",
          "type": "address"
        },
        {
          "indexed": false,
          "internalType": "string",
          "name": "name",
          "type": "string"
        },
        {
          "indexed": false,
          "internalType": "string",
          "name": "symbol",
          "type": "string"
        },
        {
          "indexed": false,
          "internalType": "string",
          "name": "description",
          "type": "string"
        },
        {
          "indexed": false,
          "internalType": "uint256",
          "name": "initialPurchase",
          "type": "uint256"
        },
        {
          "indexed": false,
          "internalType": "uint256",
          "name": "timestamp",
          "type": "uint256"
        }
      ],
      "name": "TokenCreated",
      "type": "event"
    },
    {
      "inputs": [
        {
          "internalType": "uint256",
          "name": "",
          "type": "uint256"
        }
      ],
      "name": "allTokens",
      "outputs": [
        {
          "internalType": "address",
          "name": "",
          "type": "address"
        }
      ],
      "stateMutability": "view",
      "type": "function"
    },
    {
      "inputs": [],
      "name": "config",
      "outputs": [
        {
          "internalType": "address",
          "name": "okbToken",
          "type": "address"
        },
        {
          "internalType": "address",
          "name": "feeRecipient",
          "type": "address"
        },
        {
          "internalType": "address",
          "name": "bondingCurve",
          "type": "address"
        }
      ],
      "stateMutability": "view",
      "type": "function"
    },
    {
      "inputs": [
        {
          "internalType": "string",
          "name": "name",
          "type": "string"
        },
        {
          "internalType": "string",
          "name": "symbol",
          "type": "string"
        },
        {
          "internalType": "string",
          "name": "description",
          "type": "string"
        },
        {
          "internalType": "string",
          "name": "imageUrl",
          "type": "string"
        },
        {
          "internalType": "string",
          "name": "website",
          "type": "string"
        },
        {
          "internalType": "string",
          "name": "twitter",
          "type": "string"
        },
        {
          "internalType": "string",
          "name": "telegram",
          "type": "string"
        }
      ],
      "name": "createToken",
      "outputs": [
        {
          "internalType": "address",
          "name": "",
          "type": "address"
        }
      ],
      "stateMutability": "nonpayable",
      "type": "function"
    },
    {
      "inputs": [
        {
          "internalType": "string",
          "name": "name",
          "type": "string"
        },
        {
          "internalType": "string",
          "name": "symbol",
          "type": "string"
        },
        {
          "internalType": "string",
          "name": "description",
          "type": "string"
        },
        {
          "internalType": "string",
          "name": "imageUrl",
          "type": "string"
        },
        {
          "internalType": "string",
          "name": "website",
          "type": "string"
        },
        {
          "internalType": "string",
          "name": "twitter",
          "type": "string"
        },
        {
          "internalType": "string",
          "name": "telegram",
          "type": "string"
        },
        {
          "internalType": "uint256",
          "name": "okbAmount",
          "type": "uint256"
        }
      ],
      "name": "createTokenWithPurchase",
      "outputs": [
        {
          "internalType": "address",
          "name": "",
          "type": "address"
        }
      ],
      "stateMutability": "nonpayable",
      "type": "function"
    },
    {
      "inputs": [
        {
          "internalType": "address",
          "name": "",
          "type": "address"
        }
      ],
      "name": "creatorTokenCount",
      "outputs": [
        {
          "internalType": "uint256",
          "name": "",
          "type": "uint256"
        }
      ],
      "stateMutability": "view",
      "type": "function"
    },
    {
      "inputs": [],
      "name": "emergencyWithdraw",
      "outputs": [],
      "stateMutability": "nonpayable",
      "type": "function"
    },
    {
      "inputs": [],
      "name": "getAllTokens",
      "outputs": [
        {
          "internalType": "address[]",
          "name": "",
          "type": "address[]"
        }
      ],
      "stateMutability": "view",
      "type": "function"
    },
    {
      "inputs": [],
      "name": "getConfig",
      "outputs": [
        {
          "components": [
            {
              "internalType": "address",
              "name": "okbToken",
              "type": "address"
            },
            {
              "internalType": "address",
              "name": "feeRecipient",
              "type": "address"
            },
            {
              "internalType": "address",
              "name": "bondingCurve",
              "type": "address"
            }
          ],
          "internalType": "struct TokenFactoryV1.FactoryConfig",
          "name": "",
          "type": "tuple"
        }
      ],
      "stateMutability": "view",
      "type": "function"
    },
    {
      "inputs": [
        {
          "internalType": "uint256",
          "name": "limit",
          "type": "uint256"
        }
      ],
      "name": "getRecentTokens",
      "outputs": [
        {
          "internalType": "address[]",
          "name": "",
          "type": "address[]"
        }
      ],
      "stateMutability": "view",
      "type": "function"
    },
    {
      "inputs": [
        {
          "internalType": "address",
          "name": "tokenAddress",
          "type": "address"
        }
      ],
      "name": "getTokenInfo",
      "outputs": [
        {
          "internalType": "string",
          "name": "name",
          "type": "string"
        },
        {
          "internalType": "string",
          "name": "symbol",
          "type": "string"
        },
        {
          "internalType": "string",
          "name": "description",
          "type": "string"
        },
        {
          "internalType": "string",
          "name": "imageUrl",
          "type": "string"
        },
        {
          "internalType": "uint256",
          "name": "totalSupply",
          "type": "uint256"
        },
        {
          "internalType": "uint8",
          "name": "phase",
          "type": "uint8"
        }
      ],
      "stateMutability": "view",
      "type": "function"
    },
    {
      "inputs": [
        {
          "internalType": "address",
          "name": "creator",
          "type": "address"
        }
      ],
      "name": "getTokensByCreator",
      "outputs": [
        {
          "internalType": "address[]",
          "name": "",
          "type": "address[]"
        }
      ],
      "stateMutability": "view",
      "type": "function"
    },
    {
      "inputs": [],
      "name": "getTotalTokens",
      "outputs": [
        {
          "internalType": "uint256",
          "name": "",
          "type": "uint256"
        }
      ],
      "stateMutability": "view",
      "type": "function"
    },
    {
      "inputs": [
        {
          "internalType": "address",
          "name": "",
          "type": "address"
        }
      ],
      "name": "isToken",
      "outputs": [
        {
          "internalType": "bool",
          "name": "",
          "type": "bool"
        }
      ],
      "stateMutability": "view",
      "type": "function"
    },
    {
      "inputs": [],
      "name": "owner",
      "outputs": [
        {
          "internalType": "address",
          "name": "",
          "type": "address"
        }
      ],
      "stateMutability": "view",
      "type": "function"
    },
    {
      "inputs": [],
      "name": "renounceOwnership",
      "outputs": [],
      "stateMutability": "nonpayable",
      "type": "function"
    },
    {
      "inputs": [
        {
          "internalType": "address",
          "name": "",
          "type": "address"
        },
        {
          "internalType": "uint256",
          "name": "",
          "type": "uint256"
        }
      ],
      "name": "tokensByCreator",
      "outputs": [
        {
          "internalType": "address",
          "name": "",
          "type": "address"
        }
      ],
      "stateMutability": "view",
      "type": "function"
    },
    {
      "inputs": [],
      "name": "totalFeesCollected",
      "outputs": [
        {
          "internalType": "uint256",
          "name": "",
          "type": "uint256"
        }
      ],
      "stateMutability": "view",
      "type": "function"
    },
    {
      "inputs": [],
      "name": "totalTokensCreated",
      "outputs": [
        {
          "internalType": "uint256",
          "name": "",
          "type": "uint256"
        }
      ],
      "stateMutability": "view",
      "type": "function"
    },
    {
      "inputs": [
        {
          "internalType": "address",
          "name": "newOwner",
          "type": "address"
        }
      ],
      "name": "transferOwnership",
      "outputs": [],
      "stateMutability": "nonpayable",
      "type": "function"
    },
    {
      "inputs": [
        {
          "components": [
            {
              "internalType": "address",
              "name": "okbToken",
              "type": "address"
            },
            {
              "internalType": "address",
              "name": "feeRecipient",
              "type": "address"
            },
            {
              "internalType": "address",
              "name": "bondingCurve",
              "type": "address"
            }
          ],
          "internalType": "struct TokenFactoryV1.FactoryConfig",
          "name": "newConfig",
          "type": "tuple"
        }
      ],
      "name": "updateConfig",
      "outputs": [],
      "stateMutability": "nonpayable",
      "type": "function"
    },
    {
      "inputs": [],
      "name": "withdrawFees",
      "outputs": [],
      "stateMutability": "nonpayable",
      "type": "function"
    }
  ],
  "bytecode": "0x6080604052346101d357604051601f613fed38819003918201601f19168301916001600160401b03831184841017610152578084926060946040528339810103126101d35761004d816101d8565b90610066604061005f602084016101d8565b92016101d8565b600160005533156101bd5760018054336001600160a01b0319821681179092556040519491906001600160a01b03167f8be0079c531659141344cd1fd0a4f28419497f9722a3daafe3b4186f6b6457e0600080a36001600160a01b031692831515806101ab575b80610199575b15610168575060405191606083016001600160401b038111848210176101525760409081526001600160a01b039182168085529290911660208401819052928101849052600280546001600160a01b031990811690931790556003805483169093179092556004805490911690921790915551613e0090816101ed8239f35b634e487b7160e01b600052604160045260246000fd5b62461bcd60e51b815260206004820152600c60248201526b5a45524f5f4144445245535360a01b6044820152606490fd5b506001600160a01b03821615156100d3565b506001600160a01b03831615156100cd565b631e4fbdf760e01b600052600060045260246000fd5b600080fd5b51906001600160a01b03821682036101d35756fe608080604052600436101561001357600080fd5b600090813560e01c90816319f3736114611365575080631f69565f1461109a5780632a5c792a1461101c578063476343ee14610f56578063516cee421461082b57806360c6d8ae1461080d578063634282af146107e2578063715018a61461078557806378f3f38a1461076557806379502c55146107245780638da5cb5b146106fb5780639a57bcdb146106c2578063abb2b68214610193578063bc482b6c146104e2578063bc95ef4a14610381578063c3f909d4146102fc578063d5c7127514610271578063d80d03a214610210578063db2e21bc146101b1578063f08b82e6146101935763f2fde38b1461010857600080fd5b34610190576020366003190112610190576101216113a1565b6101296116b0565b6001600160a01b0316801561017c57600180546001600160a01b0319811683179091556001600160a01b03167f8be0079c531659141344cd1fd0a4f28419497f9722a3daafe3b4186f6b6457e08380a380f35b631e4fbdf760e01b82526004829052602482fd5b80fd5b50346101905780600319360112610190576020600954604051908152f35b50346101905780600319360112610190576101ca6116b0565b804780159081156101d9575050f35b82809291819260018060a01b0360015416908390610207575bf1156101fb5780f35b604051903d90823e3d90fd5b506108fc6101f2565b50346101905760403660031901126101905761022a6113a1565b6001600160a01b0316815260076020526040812080546024359290831015610190576020610258848461152c565b905460405160039290921b1c6001600160a01b03168152f35b5034610190576020366003190112610190576001600160a01b036102936113a1565b168152600760205260408120604051918260208354918281520192825260208220915b8181106102dd576102d9856102cd81870382611478565b60405191829182611404565b0390f35b82546001600160a01b03168452602090930192600192830192016102b6565b50346101905780600319360112610190576040805161031a81611447565b82815282602082015201526102d960405161033481611447565b6002546001600160a01b0390811680835260035482166020808501918252600454841660409586019081528551938452915184169083015251909116918101919091529081906060820190565b50346101905760e0366003190112610190576004356001600160401b0381116104de576103b29036906004016114b4565b506024356001600160401b0381116104de576103d29036906004016114b4565b506044356001600160401b0381116104de576103f29036906004016114b4565b506064356001600160401b0381116104de576104129036906004016114b4565b506084356001600160401b0381116104de576104329036906004016114b4565b5060a4356001600160401b0381116104de576104529036906004016114b4565b5060c4356001600160401b0381116104de576104729036906004016114b4565b5060405162461bcd60e51b815260206004820152603760248201527f55736520637265617465546f6b656e576974685075726368617365202d20696e60448201527f697469616c2070757263686173652072657175697265640000000000000000006064820152608490fd5b5080fd5b50346101905760603660031901126101905760405161050081611447565b6105086113a1565b81526024356001600160a01b03811681036106be5760208201908152604435916001600160a01b03831683036106ba57604081019283526105476116b0565b81516001600160a01b03161561067d5780516001600160a01b0316156106445782516001600160a01b031615610607578051600280546001600160a01b03199081166001600160a01b039384169081179092559351600380548616918416919091179055935160048054909416908216179092556040805193845260208083015184169085015290810151909116908201527fd4c1f546ee51b872c59113031cb02747bacb6e06056b5ec292aab606467554749080606081015b0390a180f35b60405162461bcd60e51b8152602060048201526015602482015274496e76616c696420626f6e64696e6720637572766560581b6044820152606490fd5b60405162461bcd60e51b815260206004820152601160248201527024b73b30b634b21027a5a1103a37b5b2b760791b6044820152606490fd5b60405162461bcd60e51b8152602060048201526015602482015274125b9d985b1a5908199959481c9958da5c1a595b9d605a1b6044820152606490fd5b8380fd5b8280fd5b5034610190576020366003190112610190576020906040906001600160a01b036106ea6113a1565b168152600883522054604051908152f35b50346101905780600319360112610190576001546040516001600160a01b039091168152602090f35b5034610190578060031936011261019057600254600354600454604080516001600160a01b0394851681529284166020840152921691810191909152606090f35b5034610190576020366003190112610190576102d96102cd6004356115d0565b503461019057806003193601126101905761079e6116b0565b600180546001600160a01b0319811690915581906001600160a01b03167f8be0079c531659141344cd1fd0a4f28419497f9722a3daafe3b4186f6b6457e08280a380f35b50346101905760203660031901126101905760043590600554821015610190576020610258836114fb565b50346101905780600319360112610190576020600a54604051908152f35b503461019057610100366003190112610190576004356001600160401b0381116104de5761085d9036906004016114b4565b6024356001600160401b0381116106be5761087c9036906004016114b4565b906044356001600160401b0381116106ba5761089c9036906004016114b4565b906064356001600160401b038111610f52576108bc9036906004016114b4565b916084356001600160401b038111610cfc576108dc9036906004016114b4565b60a4356001600160401b038111610d37576108fb9036906004016114b4565b9360c4356001600160401b038111610f4e5761091b9036906004016114b4565b9460e435956002895414610f3f576002895560018060a01b0360045416916040516379502c5560e01b815261014081600481875afa908115610f34578b91610edf575b508810610e9b57865115610e5f57885115610e21578215610de457604051946126e294858701958787106001600160401b03881117610dd05760e093610a0d610a29946109ff8f956109f18f8f908f9e8f9a819f9e9b6109e393610a1b9c6109d5926116e9903961010084526101008401906113df565b9160208184039101526113df565b8d810360408f0152906113df565b908b820360608d01526113df565b9089820360808b01526113df565b9087820360a08901526113df565b9085820360c08701526113df565b920152039086f08015610dc5576004546001600160a01b03918216959116853b15610d37576040519063f2fde38b60e01b825260048201528681602481838a5af18015610d0057610db1575b5060045486906001600160a01b0316803b156104de578180916024604051809481936304694ddb60e31b83528c60048401525af18015610da657610d91575b5050600554600160401b811015610d7d57806001610ad79201600555600561152c565b81549060031b9087821b9160018060a01b03901b1916179055848652600660205260408620600160ff19825416179055338652600760205260408620805490600160401b821015610d695790610b329160018201815561152c565b81546001600160a01b0360039290921b91821b19169087901b1790553386526008602052604086208054610b65906116d9565b9055610b726009546116d9565b60095560018060a01b0360025416602087604051828101906323b872dd60e01b825233602482015230604482015288606482015260648152610bb5608482611478565b519082855af115610d5e5786513d610d555750803b155b610d4357506002546004805460405163095ea7b360e01b81526001600160a01b0391821692810192909252602482018790529091602091839160449183918c91165af18015610d0057610d0b575b5060045486906001600160a01b0316803b156104de578190608460405180948193633a2cf2a160e01b83528b60048401528a60248401528160448401523360648401525af18015610d0057610ce7575b507f979cee093a93828d2e8b673315ae1acdbd57ec336874aeba054d347b48b9e5d160209693610ccc60019694610cbe8995610cb16040519560a0875260a08701906113df565b908582038d8701526113df565b9083820360408501526113df565b9360608201524260808201528033940390a355604051908152f35b610cf2878092611478565b610cfc5738610c6a565b8580fd5b6040513d89823e3d90fd5b6020813d602011610d3b575b81610d2460209383611478565b81010312610d3757518015158114610c1a575b8680fd5b3d9150610d17565b635274afe760e01b8752600452602486fd5b60011415610bcc565b6040513d88823e3d90fd5b634e487b7160e01b88526041600452602488fd5b634e487b7160e01b87526041600452602487fd5b81610d9b91611478565b610cfc578538610ab4565b6040513d84823e3d90fd5b86610dbe91979297611478565b9438610a75565b6040513d87823e3d90fd5b634e487b7160e01b8d52604160045260248dfd5b60405162461bcd60e51b8152602060048201526015602482015274109bdb991a5b99c818dd5c9d99481b9bdd081cd95d605a1b6044820152606490fd5b60405162461bcd60e51b815260206004820152601660248201527553796d626f6c2063616e6e6f7420626520656d70747960501b6044820152606490fd5b60405162461bcd60e51b81526020600482015260146024820152734e616d652063616e6e6f7420626520656d70747960601b6044820152606490fd5b606460405162461bcd60e51b815260206004820152602060248201527f4d696e696d756d20696e697469616c207075726368617365206e6f74206d65746044820152fd5b9050610140813d8211610f2c575b81610efb6101409383611478565b81010312610f2857610f2160e0602083015192610f1a60c082016115a5565b50016115a5565b503861095e565b8a80fd5b3d9150610eed565b6040513d8d823e3d90fd5b633ee5aeb560e01b8952600489fd5b8780fd5b8480fd5b5034610190578060031936011261019057610f6f6116b0565b478015610fe157818080808460018060a01b036003541682f115610fd457600354604080516001600160a01b03909216825260208201929092527fc0819c13be868895eb93e40eaceb96de976442fa1d404e5c55f14bb65a8c489a9181908101610601565b50604051903d90823e3d90fd5b60405162461bcd60e51b81526020600482015260136024820152724e6f206665657320746f20776974686472617760681b6044820152606490fd5b503461019057806003193601126101905760405180916020600554928381520191600582527f036b6384b5eca791c62761152d0c79bb0604c104a5fb6f4eb0703f3154bb3db0915b81811061107b576102d9856102cd81870382611478565b82546001600160a01b0316845260209093019260019283019201611064565b5034610190576020366003190112610190576001600160a01b036110bc6113a1565b16808252600660205260ff6040832054161561132c576040516306fdde0360e01b8152908282600481845afa918215611321578392611305575b506040516395d89b4160e01b81528381600481855afa9081156112fa5784916112e0575b50604051633942720b60e11b81528481600481865afa908115610dc55785916112c6575b50604051630aba831560e41b8152918583600481875afa928315610d5e5786936112a2575b506040516318160ddd60e01b815293602085600481845afa948515610d0057879561126d575b50956020600497604051988980926302ad6a1760e11b82525afa968715610fd4578197611230575b50600387101561121c575060ff926111fe6111e297936111f061120c946040519a8b9a60c08c5260c08c01906113df565b908a820360208c01526113df565b9088820360408a01526113df565b9086820360608801526113df565b9260808501521660a08301520390f35b634e487b7160e01b81526021600452602490fd5b9096506020813d602011611265575b8161124c60209383611478565b81010312610d3757516003811015610d375795386111b1565b3d915061123f565b9094506020813d60201161129a575b8161128960209383611478565b81010312610d375751936020611189565b3d915061127c565b6112bf9193503d8088833e6112b78183611478565b810190611544565b9138611163565b6112da91503d8087833e6112b78183611478565b3861113e565b6112f491503d8086833e6112b78183611478565b3861111a565b6040513d86823e3d90fd5b61131a9192503d8085833e6112b78183611478565b90386110f6565b6040513d85823e3d90fd5b60405162461bcd60e51b81526020600482015260116024820152702737ba1030903b30b634b2103a37b5b2b760791b6044820152606490fd5b9050346104de5760203660031901126104de5760209160ff906040906001600160a01b036113916113a1565b1681526006855220541615158152f35b600435906001600160a01b03821682036113b757565b600080fd5b60005b8381106113cf5750506000910152565b81810151838201526020016113bf565b906020916113f8815180928185528580860191016113bc565b601f01601f1916010190565b602060408183019282815284518094520192019060005b8181106114285750505090565b82516001600160a01b031684526020938401939092019160010161141b565b606081019081106001600160401b0382111761146257604052565b634e487b7160e01b600052604160045260246000fd5b90601f801991011681019081106001600160401b0382111761146257604052565b6001600160401b03811161146257601f01601f191660200190565b81601f820112156113b7578035906114cb82611499565b926114d96040519485611478565b828452602083830101116113b757816000926020809301838601378301015290565b60055481101561151657600560005260206000200190600090565b634e487b7160e01b600052603260045260246000fd5b80548210156115165760005260206000200190600090565b6020818303126113b7578051906001600160401b0382116113b7570181601f820112156113b757805161157681611499565b926115846040519485611478565b818452602082840101116113b7576115a291602080850191016113bc565b90565b51906001600160a01b03821682036113b757565b6001600160401b0381116114625760051b60200190565b600554908115611694578181111561168f5750805b6115ee816115b9565b916115fc6040519384611478565b818352601f1961160b836115b9565b0136602085013760001981019080821160005b84811061162d57505050505090565b81611679578083036000190184811161167957611649906114fb565b9054875160039290921b1c6001600160a01b031691908110156115165760019160208260051b890101520161161e565b634e487b7160e01b600052601160045260246000fd5b6115e5565b50506040516116a4602082611478565b60008152600036813790565b6001546001600160a01b031633036116c457565b63118cdaa760e01b6000523360045260246000fd5b6000198114611679576001019056fe608060405234610af9576126e28038038061001981610afe565b928339810161010082820312610af95781516001600160401b038111610af95781610045918401610b23565b60208301519092906001600160401b038111610af95782610067918301610b23565b60408201519093906001600160401b038111610af95783610089918401610b23565b60608301516001600160401b038111610af957846100a8918501610b23565b60808401519091906001600160401b038111610af957856100ca918601610b23565b60a08501519096906001600160401b038111610af957866100ec918701610b23565b60c08601519096906001600160401b038111610af95760e091610110918801610b23565b9501516001600160a01b0381169490859003610af9578051906001600160401b0382116105575760035490600182811c92168015610aef575b60208310146105375781601f849311610a7f575b50602090601f8311600114610a1757600092610a0c575b50508160011b916000199060031b1c1916176003555b8051906001600160401b0382116105575760045490600182811c92168015610a02575b60208310146105375781601f849311610992575b50602090601f831160011461092a5760009261091f575b50508160011b916000199060031b1c1916176004555b33156109095760058054336001600160a01b0319821681179092556001600160a01b03167f8be0079c531659141344cd1fd0a4f28419497f9722a3daafe3b4186f6b6457e0600080a38051906001600160401b0382116105575760065490600182811c921680156108ff575b60208310146105375781601f84931161088f575b50602090601f83116001146108275760009261081c575b50508160011b916000199060031b1c1916176006555b8051906001600160401b0382116105575760075490600182811c92168015610812575b60208310146105375781601f8493116107a2575b50602090601f831160011461073a5760009261072f575b50508160011b916000199060031b1c1916176007555b83516001600160401b03811161055757600854600181811c91168015610725575b602082101461053757601f81116106c0575b50602094601f82116001146106595794819293949560009261064e575b50508160011b916000199060031b1c1916176008555b82516001600160401b03811161055757600954600181811c91168015610644575b602082101461053757601f81116105df575b506020601f8211600114610578578192939460009261056d575b50508160011b916000199060031b1c1916176009555b81516001600160401b03811161055757600a54600181811c9116801561054d575b602082101461053757601f81116104d2575b50602092601f821160011461046d5792819293600092610462575b50508160011b916000199060031b1c191617600a555b600e80546001600160a01b031916919091179055600b805460ff1916905542600c556000600d55604051611b539081610b8f8239f35b015190503880610416565b601f19821693600a600052806000209160005b8681106104ba57508360019596106104a1575b505050811b01600a5561042c565b015160001960f88460031b161c19169055388080610493565b91926020600181928685015181550194019201610480565b600a6000527fc65a7bb8d6351c1cf70c95a316cc6a92839c986682d98bc35f958f4883f9d2a8601f830160051c8101916020841061052d575b601f0160051c01905b81811061052157506103fb565b60008155600101610514565b909150819061050b565b634e487b7160e01b600052602260045260246000fd5b90607f16906103e9565b634e487b7160e01b600052604160045260246000fd5b0151905038806103b2565b601f198216906009600052806000209160005b8181106105c7575095836001959697106105ae575b505050811b016009556103c8565b015160001960f88460031b161c191690553880806105a0565b9192602060018192868b01518155019401920161058b565b60096000527f6e1540171b6c0c960b71a7020d9f60077f6af931a8bbf590da0223dacf75c7af601f830160051c8101916020841061063a575b601f0160051c01905b81811061062e5750610398565b60008155600101610621565b9091508190610618565b90607f1690610386565b01519050388061034f565b601f198216956008600052806000209160005b8881106106a85750836001959697981061068f575b505050811b01600855610365565b015160001960f88460031b161c19169055388080610681565b9192602060018192868501518155019401920161066c565b60086000527ff3f7a9fe364faab93b216da50a3214154f22a0a2b415b23a84c8169e8b636ee3601f830160051c8101916020841061071b575b601f0160051c01905b81811061070f5750610332565b60008155600101610702565b90915081906106f9565b90607f1690610320565b0151905038806102e9565b600760009081528281209350601f198516905b81811061078a5750908460019594939210610771575b505050811b016007556102ff565b015160001960f88460031b161c19169055388080610763565b9293602060018192878601518155019501930161074d565b60076000529091507fa66cc928b5edb82af9bd49922954155ab7b0942694bea4ce44661d9a8736c688601f840160051c81019160208510610808575b90601f859493920160051c01905b8181106107f957506102d2565b600081558493506001016107ec565b90915081906107de565b91607f16916102be565b015190503880610285565b600660009081528281209350601f198516905b818110610877575090846001959493921061085e575b505050811b0160065561029b565b015160001960f88460031b161c19169055388080610850565b9293602060018192878601518155019501930161083a565b60066000529091507ff652222313e28459528d920b65115c16c04f3efc82aaedc97be59f3f377c0d3f601f840160051c810191602085106108f5575b90601f859493920160051c01905b8181106108e6575061026e565b600081558493506001016108d9565b90915081906108cb565b91607f169161025a565b631e4fbdf760e01b600052600060045260246000fd5b0151905038806101d8565b600460009081528281209350601f198516905b81811061097a5750908460019594939210610961575b505050811b016004556101ee565b015160001960f88460031b161c19169055388080610953565b9293602060018192878601518155019501930161093d565b60046000529091507f8a35acfbc15ff81a39ae7d344fd709f28e8600b4aa8c65c6b64bfe7fe36bd19b601f840160051c810191602085106109f8575b90601f859493920160051c01905b8181106109e957506101c1565b600081558493506001016109dc565b90915081906109ce565b91607f16916101ad565b015190503880610174565b600360009081528281209350601f198516905b818110610a675750908460019594939210610a4e575b505050811b0160035561018a565b015160001960f88460031b161c19169055388080610a40565b92936020600181928786015181550195019301610a2a565b60036000529091507fc2575a0e9e593c00f959f8c92f12db2869c3395a3b0502d05e2516446f71f85b601f840160051c81019160208510610ae5575b90601f859493920160051c01905b818110610ad6575061015d565b60008155849350600101610ac9565b9091508190610abb565b91607f1691610149565b600080fd5b6040519190601f01601f191682016001600160401b0381118382101761055757604052565b81601f82011215610af9578051906001600160401b03821161055757610b52601f8301601f1916602001610afe565b9282845260208383010111610af95760005b828110610b7957505060206000918301015290565b80602080928401015182828701015201610b6456fe608080604052600436101561001357600080fd5b60003560e01c908163055ad42e146113f15750806306fdde03146113d5578063090c8ba3146113a7578063095ea7b31461132157806318160ddd1461130357806323b872dd14611216578063241613ab14610d5a578063313ce56714610d3e57806334fc0f8c14610d125780633b33721414610cda57806340c10f1914610c1957806347ecb66514610bfd57806356ce0e6c1461089f57806357f3b5f41461088157806370a0823114610847578063715018a6146107ea5780637284e416146107ce57806379cc67901461070257806387cc7d4a1461061e5780638da5cb5b146105f557806395d89b41146105d9578063967e6e65146105ba578063a9059cbb14610589578063aba831501461056d578063abb1dc4414610448578063abfaeee01461042c578063beb0a416146103f8578063d5441b0014610308578063d8270dce146102ea578063dd62ed3e14610299578063e5ffebf014610276578063ecdd05e21461024d578063eff1d50e146102245763f2fde38b1461019557600080fd5b3461021f57602036600319011261021f576101ae611464565b6101b6611a54565b6001600160a01b0316801561020957600580546001600160a01b0319811683179091556001600160a01b03167f8be0079c531659141344cd1fd0a4f28419497f9722a3daafe3b4186f6b6457e0600080a3005b631e4fbdf760e01b600052600060045260246000fd5b600080fd5b3461021f57600036600319011261021f57600e546040516001600160a01b039091168152602090f35b3461021f57600036600319011261021f57600f546040516001600160a01b039091168152602090f35b3461021f57600036600319011261021f57602061029161199f565b604051908152f35b3461021f57604036600319011261021f576102b2611464565b6102ba61147a565b6001600160a01b039182166000908152600160209081526040808320949093168252928352819020549051908152f35b3461021f57600036600319011261021f576020600c54604051908152f35b3461021f57600036600319011261021f5761032e60018060a01b03600e5416331461192c565b60ff600b541660038110156103e2578061038d577fb070f30564c7f6b4417cbad108e44deef775fbe1f133668303bd71b13497ac4a90600160ff19600b541617600b5560ff600b541661038860405192839242918461196d565b0390a1005b60405162461bcd60e51b815260206004820152602760248201527f496e76616c69642070686173653a206d75737420626520696e2063757276652060448201526674726164696e6760c81b6064820152608490fd5b634e487b7160e01b600052602160045260246000fd5b3461021f57600036600319011261021f57610428610414611822565b604051918291602083526020830190611423565b0390f35b3461021f57600036600319011261021f576104286104146118a7565b3461021f57600036600319011261021f57610461611543565b610469611706565b600b54600254600c54600d54600e54600f5495969560ff909516946001600160a01b03908116949116929061049c611681565b6104a461179d565b6104ac611822565b6104b46118a7565b916104bd6115fc565b936040519c8d9c8d6101a081526101a0016104d791611423565b8d810360208f01526104e891611423565b8c810360408e01526104f991611423565b8b810360608d015261050a91611423565b8a810360808c015261051b91611423565b89810360a08b015261052c91611423565b88810360c08a015261053d91611423565b9560e0880161054b91611416565b6101008701526101208601526101408501526101608401526101808301520390f35b3461021f57600036600319011261021f5761042861041461179d565b3461021f57604036600319011261021f576105af6105a5611464565b60243590336119bb565b602060405160018152f35b3461021f57600036600319011261021f576020610291600c5442611992565b3461021f57600036600319011261021f57610428610414611706565b3461021f57600036600319011261021f576005546040516001600160a01b039091168152602090f35b3461021f57602036600319011261021f57610637611464565b61064c60018060a01b03600e5416331461192c565b60ff600b541660038110156103e257600181036106cd577fb070f30564c7f6b4417cbad108e44deef775fbe1f133668303bd71b13497ac4a91600260ff19600b541617600b5542600d5560018060a01b03166bffffffffffffffffffffffff60a01b600f541617600f5560ff600b541661038860405192839242918461196d565b60405162461bcd60e51b815260206004820152600d60248201526c496e76616c696420706861736560981b6044820152606490fd5b3461021f57604036600319011261021f5761071b611464565b6024359061073460018060a01b03600e5416331461192c565b6001600160a01b03169081156107b8576000908282528160205260408220548181106107a05760208285937fddf252ad1be2c89b69c2b068fc378daa952ba7f163c4a11628f55a4df523b3ef93869787528684520360408620558060025403600255604051908152a380f35b60649363391434e360e21b8452600452602452604452fd5b634b637e8f60e11b600052600060045260246000fd5b3461021f57600036600319011261021f57610428610414611681565b3461021f57600036600319011261021f57610803611a54565b600580546001600160a01b031981169091556000906001600160a01b03167f8be0079c531659141344cd1fd0a4f28419497f9722a3daafe3b4186f6b6457e08280a3005b3461021f57602036600319011261021f576001600160a01b03610868611464565b1660005260006020526020604060002054604051908152f35b3461021f57600036600319011261021f576020600d54604051908152f35b3461021f57604036600319011261021f5760043567ffffffffffffffff811161021f576108d09036906004016114b2565b60243567ffffffffffffffff811161021f576108f09036906004016114b2565b6108f8611a54565b81519167ffffffffffffffff8311610aff57610915600654611509565b601f8111610b90575b50602092601f8111600114610b205780919293600091610b15575b508160011b916000199060031b1c1916176006555b81519167ffffffffffffffff8311610aff5761096b600754611509565b601f8111610a92575b50602092601f81116001146109f9576109e0929181610388927f30f5c4b652f95e2a697bda3258896c421eee4f29adce8fe38060f47f7aed91ad966000916109ee575b508160011b916000199060031b1c1916176007555b604051938493604085526040850190611423565b908382036020850152611423565b9050820151876109b7565b601f1981166007600052600080516020611a9e8339815191529060005b818110610a7a5750826109e09594927f30f5c4b652f95e2a697bda3258896c421eee4f29adce8fe38060f47f7aed91ad976103889560019410610a61575b5050811b016007556109cc565b84015160001960f88460031b161c191690558780610a54565b84870151835560209687019660019093019201610a16565b6007600052601f840160051c600080516020611a9e833981519152019060208510610ae9575b601f0160051c600080516020611a9e83398151915201905b818110610add5750610974565b60008155600101610ad0565b600080516020611a9e8339815191529150610ab8565b634e487b7160e01b600052604160045260246000fd5b905082015184610939565b601f198116936006600052600080516020611afe8339815191529060005b868110610b78575082600194959610610b5f575b5050811b0160065561094e565b84015160001960f88460031b161c191690558480610b52565b90916020600181928588015181550193019101610b3e565b6006600052601f840160051c600080516020611afe833981519152019060208510610be7575b601f0160051c600080516020611afe83398151915201905b818110610bdb575061091e565b60008155600101610bce565b600080516020611afe8339815191529150610bb6565b3461021f57600036600319011261021f576104286104146115fc565b3461021f57604036600319011261021f57610c32611464565b60243590610c4b60018060a01b03600e5416331461192c565b6001600160a01b03168015610cc45760025491808301809311610cae576020926002557fddf252ad1be2c89b69c2b068fc378daa952ba7f163c4a11628f55a4df523b3ef600093849284845283825260408420818154019055604051908152a380f35b634e487b7160e01b600052601160045260246000fd5b63ec442f0560e01b600052600060045260246000fd5b3461021f57602036600319011261021f57600435600381101561021f5760ff600b541660038110156103e25760209160405191148152f35b3461021f57600036600319011261021f5760ff600b541660038110156103e25760209060405190158152f35b3461021f57600036600319011261021f57602060405160128152f35b3461021f57606036600319011261021f5760043567ffffffffffffffff811161021f57610d8b9036906004016114b2565b60243567ffffffffffffffff811161021f57610dab9036906004016114b2565b60443567ffffffffffffffff811161021f57610dcb9036906004016114b2565b91610dd4611a54565b805167ffffffffffffffff8111610aff57610df0600854611509565b601f81116111a9575b50806020601f82116001146111375760009161112c575b508160011b916000199060031b1c1916176008555b81519267ffffffffffffffff8411610aff57610e42600954611509565b601f81116110bf575b50602093601f811160011461104e578091929394600091611043575b508160011b916000199060031b1c1916176009555b80519267ffffffffffffffff8411610aff57610e99600a54611509565b601f8111610fd6575b50602093601f8111600114610f395791610f206103889284610f1296957ffcaf8610c2503f2df0a1d36433ffbc6d194859488267d3e9719c999f8232218898600091610f2e575b508160011b916000199060031b1c191617600a555b604051958695606087526060870190611423565b908582036020870152611423565b908382036040850152611423565b905084015189610ee9565b601f198116600a600052600080516020611a7e8339815191529060005b818110610fbe575092600183610f20937ffcaf8610c2503f2df0a1d36433ffbc6d194859488267d3e9719c999f8232218899610f129998966103889810610fa5575b5050811b01600a55610efe565b86015160001960f88460031b161c191690558980610f98565b85880151835560209788019760019093019201610f56565b600a600052601f850160051c600080516020611a7e83398151915201906020861061102d575b601f0160051c600080516020611a7e83398151915201905b8181106110215750610ea2565b60008155600101611014565b600080516020611a7e8339815191529150610ffc565b905084015185610e67565b601f198116946009600052600080516020611ade8339815191529060005b8781106110a75750826001949596971061108e575b5050811b01600955610e7c565b86015160001960f88460031b161c191690558580611081565b9091602060018192858a01518155019301910161106c565b6009600052601f850160051c600080516020611ade833981519152019060208610611116575b601f0160051c600080516020611ade83398151915201905b81811061110a5750610e4b565b600081556001016110fd565b600080516020611ade83398151915291506110e5565b905082015185610e10565b60086000908152600080516020611abe8339815191529250601f198416905b81811061119157509083600194939210611178575b5050811b01600855610e25565b84015160001960f88460031b161c19169055858061116b565b91926020600181928689015181550194019201611156565b6008600052601f820160051c600080516020611abe833981519152019060208310611200575b601f0160051c600080516020611abe83398151915201905b8181106111f45750610df9565b600081556001016111e7565b600080516020611abe83398151915291506111cf565b3461021f57606036600319011261021f5761122f611464565b61123761147a565b6001600160a01b0382166000818152600160209081526040808320338452909152902054909260443592916000198110611277575b506105af93506119bb565b8381106112e65784156112d05733156112ba576105af946000526001602052604060002060018060a01b033316600052602052836040600020910390558461126c565b634a1406b160e11b600052600060045260246000fd5b63e602df0560e01b600052600060045260246000fd5b8390637dc7a0d960e11b6000523360045260245260445260646000fd5b3461021f57600036600319011261021f576020600254604051908152f35b3461021f57604036600319011261021f5761133a611464565b6024359033156112d0576001600160a01b03169081156112ba57336000526001602052604060002082600052602052806040600020556040519081527f8c5be1e5ebec7d5bd14f71427d1e84f3dd0314c0f7b2291e5b200ac8c7c3b92560203392a3602060405160018152f35b3461021f57600036600319011261021f5760ff600b541660038110156103e257602090600260405191148152f35b3461021f57600036600319011261021f57610428610414611543565b3461021f57600036600319011261021f578061141460209260ff600b5416611416565bf35b9060038210156103e25752565b919082519283825260005b84811061144f575050826000602080949584010152601f8019910116010190565b8060208092840101518282860101520161142e565b600435906001600160a01b038216820361021f57565b602435906001600160a01b038216820361021f57565b90601f8019910116810190811067ffffffffffffffff821117610aff57604052565b81601f8201121561021f5780359067ffffffffffffffff8211610aff57604051926114e7601f8401601f191660200185611490565b8284526020838301011161021f57816000926020809301838601378301015290565b90600182811c92168015611539575b602083101461152357565b634e487b7160e01b600052602260045260246000fd5b91607f1691611518565b604051906000826003549161155783611509565b80835292600181169081156115dd575060011461157d575b61157b92500383611490565b565b506003600090815290917fc2575a0e9e593c00f959f8c92f12db2869c3395a3b0502d05e2516446f71f85b5b8183106115c157505090602061157b9282010161156f565b60209193508060019154838589010152019101909184926115a9565b6020925061157b94915060ff191682840152151560051b82010161156f565b60405190600082600a549161161083611509565b80835292600181169081156115dd57506001146116335761157b92500383611490565b50600a60009081529091600080516020611a7e8339815191525b81831061166557505090602061157b9282010161156f565b602091935080600191548385890101520191019091849261164d565b604051906000826006549161169583611509565b80835292600181169081156115dd57506001146116b85761157b92500383611490565b50600660009081529091600080516020611afe8339815191525b8183106116ea57505090602061157b9282010161156f565b60209193508060019154838589010152019101909184926116d2565b604051906000826004549161171a83611509565b80835292600181169081156115dd575060011461173d5761157b92500383611490565b506004600090815290917f8a35acfbc15ff81a39ae7d344fd709f28e8600b4aa8c65c6b64bfe7fe36bd19b5b81831061178157505090602061157b9282010161156f565b6020919350806001915483858901015201910190918492611769565b60405190600082600754916117b183611509565b80835292600181169081156115dd57506001146117d45761157b92500383611490565b50600760009081529091600080516020611a9e8339815191525b81831061180657505090602061157b9282010161156f565b60209193508060019154838589010152019101909184926117ee565b604051906000826008549161183683611509565b80835292600181169081156115dd57506001146118595761157b92500383611490565b50600860009081529091600080516020611abe8339815191525b81831061188b57505090602061157b9282010161156f565b6020919350806001915483858901015201910190918492611873565b60405190600082600954916118bb83611509565b80835292600181169081156115dd57506001146118de5761157b92500383611490565b50600960009081529091600080516020611ade8339815191525b81831061191057505090602061157b9282010161156f565b60209193508060019154838589010152019101909184926118f8565b1561193357565b60405162461bcd60e51b81526020600482015260126024820152714f6e6c7920626f6e64696e6720637572766560701b6044820152606490fd5b61198e604092959493611984836060810198611416565b6020830190611416565b0152565b91908203918211610cae57565b600d5480156119b5576119b29042611992565b90565b50600090565b6001600160a01b03169081156107b8576001600160a01b0316918215610cc4576000828152806020526040812054828110611a3a5791604082827fddf252ad1be2c89b69c2b068fc378daa952ba7f163c4a11628f55a4df523b3ef958760209652828652038282205586815280845220818154019055604051908152a3565b916064928463391434e360e21b8452600452602452604452fd5b6005546001600160a01b03163303611a6857565b63118cdaa760e01b6000523360045260246000fdfec65a7bb8d6351c1cf70c95a316cc6a92839c986682d98bc35f958f4883f9d2a8a66cc928b5edb82af9bd49922954155ab7b0942694bea4ce44661d9a8736c688f3f7a9fe364faab93b216da50a3214154f22a0a2b415b23a84c8169e8b636ee36e1540171b6c0c960b71a7020d9f60077f6af931a8bbf590da0223dacf75c7aff652222313e28459528d920b65115c16c04f3efc82aaedc97be59f3f377c0d3fa264697066735822122021b80d34ee1ebe0542139ac1ee472a4ed0e6d92e76f25871f3c928de82da2d8364736f6c634300081c0033a2646970667358221220282671929a9d2c99701cbe831d3e88eed8387831f9033dc4a4360eb8e42a520764736f6c634300081c0033",
  "linkReferences": {},
  "deployedLinkReferences": {}
}